:020000040800F2
:10000000E8080020010100084913000891110008C8
:1000100045130008EF010008631B00080000000002
:10002000000000000000000000000000B9150008FA
:10003000F3010008000000008F150008A119000856
:100040001B0100081B0100081B0100081B01000820
:100050001B0100081B0100081B0100081102000819
:100060001B0100081B0100081B0100081B01000800
:100070001B0100081B0100081B0100081B010008F0
:100080001B0100081B0100081B0100081B010008E0
:100090001B0100081B0100081B0100081B010008D0
:1000A0001B0100081B0100081B0100081B010008C0
:1000B0001B0100081B010008691A00081B01000849
:1000C0001B0100081B0100081B0100081B010008A0
:1000D0001B0100081B0100081B0100081B01000890
:1000E000F50100081B0100081B010008DFF80CD017
:1000F00000F040F80048004709200008E808002008
:100100000648804706480047FEE7FEE7FEE7FEE7B1
:10011000FEE7FEE7FEE7FEE7FEE7FEE7111A00084E
:10012000ED000008D2B201E000F8012B491EFBD21D
:1001300070470022F6E710B513460A4604461946F2
:10014000FFF7F0FF204610BD30B50B4601460020FA
:100150002022012409E021FA02F59D4205D303FA89
:1001600002F5491B04FA02F52844151EA2F101020A
:10017000F1DC30BD064C074D06E0E06840F00103BD
:1001800094E8070098471034AC42F6D3FFF7B2FF6B
:100190001C2A00083C2A000870B58C1810F8015B76
:1001A00015F0070301D110F8013B2A1106D110F810
:1001B000012B03E010F8016B01F8016B5B1EF9D114
:1001C0002B0705D40023521E0DD401F8013BFAE79A
:1001D00010F8013BCB1A921C03E013F8015B01F805
:1001E000015B521EF9D5A142D8D3002070BD00BFDB
:1001F000FEE7704710B54FF4806000F02DF803481B
:100200000068401C0149086010BD0000080400207F
:1002100010B5022000F020F802484068401C014957
:10022000486010BD080400207047000070B5044607
:1002300000F0BEF906462546681C10B10448007857
:10024000054400BF00F0B4F9801BA842FAD370BD8A
:10025000380400207047000010B5044604480068C8
:10026000204020B1024804602046FFF7F3FF10BD94
:10027000140401402DE9F8470346002294466EE13C
:100280004FF0010808FA02F4D1F8008008EA0400EF
:10029000A0427DD1DFF8DCA2D1F80480A8EB0A09E6
:1002A000D0453AD014DCB8F1030F50D009DCB8F1D6
:1002B000000F31D0B8F1010F1CD0B8F1020F49D1B5
:1002C00020E0B8F1110F18D0B8F1120F42D11EE0A2
:1002D000B9F5881F25D006DCB9F5803F20D0B9F5E7
:1002E000801F37D11AE0B9F5001F18D0B9F5041FE7
:1002F00030D117E0D1F80CC02DE0D1F80C8008F116
:10030000040C28E0D1F80C8008F1080C23E0D1F8A7
:100310000C8008F10C0C1EE000BF00BF00BF00BF46
:1003200000BF00BFD1F80880B8F1000F02D14FF034
:10033000040C0BE0D1F80880B8F1010F03D14FF0A5
:10034000080C1C6102E04FF0080C5C6103E04FF008
:10035000000C00E000BF00BFFF2801D8984601E074
:1003600003F104084646FF2802D84FEA820803E05A
:10037000A2F108084FEA88084746D6F800804FF0F7
:100380000F0909FA07F928EA09080CFA07F900E049
:1003900088E048EA0908C6F80080D1F8048008F02F
:1003A0008058B8F1805F7DD100BFDFF8CC81D8F8EC
:1003B000188048F00108DFF8C091C9F81880C846D5
:1003C000D8F8188008F00108CDF8008000BF00BF01
:1003D0004FEAB9384FEA920958F829504FEA827823
:1003E0004FEA18794FF00F0808FA09F825EA0805CE
:1003F000DFF88881434502D14FF0000816E0DFF8AE
:100400008081434502D14FF001080FE0DFF874818D
:10041000434502D14FF0020808E0DFF86C81434504
:1004200002D14FF0030801E04FF004084FEA82794F
:100430004FEA197908FA09F848EA0505DFF84C810E
:100440004FEA920948F82950D1F8048008F480381E
:10045000B8F5803F0AD1DFF83881D8F8008048EA43
:100460000008DFF82C91C9F8008009E0DFF820814E
:10047000D8F8008028EA0008DFF81491C9F8008055
:10048000D1F8048008F40038B8F5003F10D1DFF847
:10049000008108F10408D8F8008048EA0008DFF875
:1004A000F09000E05AE009F10409C9F800800DE07D
:1004B000DFF8DC8008F10408D8F8008028EA00089A
:1004C000DFF8CC9009F10409C9F80080D1F8048064
:1004D00008F48018B8F5801F0ED1DFF8B48008F159
:1004E0000808D8F8008048EA0008DFF8A49009F16D
:1004F0000809C9F800800DE0DFF8948008F10808C9
:10050000D8F8008028EA0008DFF8849009F108098B
:10051000C9F80080D1F8048008F40018B8F5001F6D
:100520000ED1DFF86C8008F10C08D8F8008048EA9A
:100530000008DFF85C9009F10C09C9F800800DE0B3
:10054000DFF84C8008F10C08D8F8008028EA000891
:10055000DFF83C9009F10C09C9F80080521CD1F871
:10056000008028FA02F8B8F1000F7FF489AEBDE8E8
:10057000F887000000001110001002400008014040
:10058000000C01400010014000140140080001402F
:1005900000040140024693680B400BB1012000E0CB
:1005A000002070470AB1016101E00B04036170474C
:1005B00001480068704700003004002003480068CC
:1005C0000349097808440149086070473004002055
:1005D0003804002010B50848006840F010000649B3
:1005E0000860032000F0A8F8002000F007F800F0F1
:1005F0002BF8002010BD00000020024070B504461A
:100600000E4800784FF47A71B1FBF0F00C4909689C
:10061000B1FBF0F5284600F0E5FB08B1012070BD04
:10062000102C07D200222146501E00F047F8054842
:10063000046001E00120F2E70020F0E73804002028
:100640003C0400203404002008B500BF1148806934
:1006500040F001000F4988610846806900F0010000
:10066000009000BF00BF00BF0846C06940F0805046
:10067000C8610846C06900F08050009000BF00BF0C
:1006800000BF0549486820F0E06040F00070486015
:1006900000BF08BD001002400000014001460846AE
:1006A000002809DB00F01F0301229A4043099B0048
:1006B00003F1E023C3F8002100BF70472DE9F05F8C
:1006C00080460D461646002701F0BEFA0746394619
:1006D0002A46334601F00700C0F1070ABAF1040FB9
:1006E00002D94FF0040A01E0C0F1070AD14600F137
:1006F000040ABAF1070F02D24FF0000A01E0A0F19C
:10070000030AD4464FF0010A0AFA09FAAAF1010ACB
:100710000AEA020A0AFA0CFA4FF0010B0BFA0CFB78
:10072000ABF1010B0BEA030B4AEA0B0421464046EE
:1007300001F092FABDE8F09F00BF00F00702064BFF
:1007400019684FF6FF031940044B0B4343EA02219B
:10075000014B196000BF70470CED00E00000FA0586
:1007600070B504460D460CB9012070BD5A480068AA
:1007700000F00700A8420ED25748006820F007009A
:100780002843554908600846006800F00700A84261
:1007900001D00120E9E7207800F0020002281DD1F5
:1007A000207800F00400042805D14C48406840F44B
:1007B000E0604A494860207800F00800082805D128
:1007C0004648406840F460504449486043484068A7
:1007D00020F0F000A168084340494860207800F00C
:1007E000010078B36068012806D13C48006800F435
:1007F000003090B90120B8E76068022806D1374878
:10080000006800F0007040B90120AEE7334800688E
:1008100000F0020008B90120A7E73048406820F046
:100820000300616808432D494860FFF7C1FE064692
:1008300009E0FFF7BDFE801B41F28831884202D9F2
:10084000032092E707E02548406800F00C0061684B
:10085000B0EB810FEDD12048006800F00700A842FE
:100860000ED91D48006820F0070028431A49086087
:100870000846006800F00700A84201D0012074E794
:10088000207800F00400042807D11448406820F4C0
:10089000E060E168084311494860207800F00800F2
:1008A000082808D10D48406820F46050216940EACA
:1008B000C1000A49486000F019F808494968C1F3C5
:1008C0000311074A515CC8400649086006480068A1
:1008D000FFF794FE002048E700200240001002408D
:1008E000EA2100083C04002034040020F0B585B063
:1008F0000FF26C0C9CE8E01001A8A0E8E0101CA529
:100900002D68009500210022002300240020194DAD
:10091000696801F00C05F5B1042D02D0082D19D13C
:1009200001E0154819E001ADC1F38346AC5D01F467
:10093000803555B10F4D6D68C5F340451DF8052054
:100940000D4D6543B5FBF2F302E00C4D04FB05F3DE
:10095000184602E000BF084800BF00BF05B0F0BD68
:1009600002030405060708090A0B0C0D0E0F1010F0
:10097000010200000010024000127A0000093D0050
:10098000F8B504460CB90120F8BD207800F001004C
:10099000002878D0F848406800F00C0004280CD0FB
:1009A000F548406800F00C00082811D1F248406872
:1009B00000F48030B0F5803F0AD1EF48006800F4C1
:1009C000003000285FD0606800285CD10120DBE7A0
:1009D00000BF6068B0F5803F06D1E748006840F48A
:1009E0008030E549086028E0606858B9E24800684E
:1009F00020F48030E04908600846006820F4802038
:100A000008601AE06068B0F5A02F0BD1DA480068E2
:100A100040F48020D84908600846006840F48030DF
:100A200008600AE0D448006820F48030D2490860A9
:100A30000846006820F48020086000BF606888B124
:100A4000FFF7B6FD054606E0FFF7B2FD401B642840
:100A500001D9032098E7C848006800F40030002856
:100A6000F2D010E0FFF7A4FD054606E0FFF7A0FD79
:100A7000401B642801D9032086E7BF48006800F4C2
:100A800000300028F2D1207800F00200022857D16F
:100A9000B948406800F00C0050B1B748406800F019
:100AA0000C00082818D1B448406800F4803098B988
:100AB000B148006800F0020020B12069012801D08F
:100AC000012061E7AC48006820F0F800616940EA65
:100AD000C100A949086033E02069E8B10120A749B5
:100AE0000860FFF765FD054606E0FFF761FD401B66
:100AF000022801D9032047E79F48006800F0020060
:100B00000028F2D09C48006820F0F800616940EAB3
:100B1000C1009949086013E0002098490860FFF778
:100B200047FD054606E0FFF743FD401B022801D9BB
:100B3000032029E79048006800F002000028F2D165
:100B4000207800F0080008282DD1A069B8B1012054
:100B50008B490860FFF72CFD054606E0FFF728FDEE
:100B6000401B022801D903200EE78348406A00F0A9
:100B700002000028F2D0012000F00AFD13E000205E
:100B80007F490860FFF714FD054606E0FFF710FDFA
:100B9000401B022801D90320F6E67748406A00F09E
:100BA00002000028F2D1207800F00400042873D15C
:100BB00000277148C06900F0805070B900BF6E48CE
:100BC000C06940F080506C49C8610846C06900F0B7
:100BD0008050009000BF00BF01276A48006800F401
:100BE0008070B0B96748006840F48070654908605B
:100BF000FFF7DEFC054606E0FFF7DAFC401B642841
:100C000001D90320C0E65F48006800F48070002826
:100C1000F2D000BFE068012806D15748006A40F0D2
:100C200001005549086227E0E06858B95248006A57
:100C300020F00100504908620846006A20F00400D4
:100C4000086219E0E06805280BD14B48006A40F0C3
:100C50000400494908620846006A40F00100086241
:100C60000AE04548006A20F001004349086208464E
:100C7000006A20F00400086200BFE068A0B1FFF73E
:100C800097FC054609E0FFF793FC401B41F28831D1
:100C9000884202D9032077E622E03748006A00F054
:100CA00002000028EFD012E0FFF782FC054608E0C2
:100CB000FFF77EFC401B41F28831884201D90320B6
:100CC00062E62D48006A00F002000028F0D1012FF2
:100CD00005D12948C06920F080502749C86100BF6C
:100CE000E069C8B32448406800F00C00082860D0D0
:100CF000E069022848D1002020490866FFF758FC27
:100D0000054606E0FFF754FC401B022801D90320EA
:100D10003AE61948006800F000700028F2D1206A15
:100D2000B0F5803F07D11448406820F40030A16836
:100D3000084311494860D4E9080108430E4949684D
:100D400021F4741108430C49486001200B490866DE
:100D5000FFF72EFC054607E03DE0FFF729FC401BAE
:100D6000022801D903200FE60348006800F0007054
:100D70000028F2D02FE000000010024000004242A4
:100D80008004424200700040002014490866FFF7CA
:100D90000FFC054606E0FFF70BFC401B022801D9BB
:100DA0000320F1E50E48006800F000700028F2D141
:100DB00011E0E069012800D1E6E50948466806F43B
:100DC0008031206A814204D106F47011606A814248
:100DD00001D00120D8E50020D6E500000000424205
:100DE0000010024070B504462546681EB0F1807FB1
:100DF00001D301200FE0681E4FF0E02148610F2170
:100E00004FF0FF3000F028FF00204FF0E021886114
:100E100007200861002070BD7047704710B502467A
:100E200000BF92F83C00012801D1022010BD012032
:100E300082F83C0000BF022082F83D001068436841
:100E40001068846823F070030868034324F080046A
:100E5000486804431068436010688460012082F889
:100E60003D0000BF002082F83C0000BF00BFDDE76E
:100E700010B504460CB9012010BD94F83D0028B906
:100E8000002084F83C00204600F00CF8022084F892
:100E90003D00211D206800F0EFFD012084F83D0099
:100EA0000020E9E738B504460D492068884215D18D
:100EB00000BF0C48C06940F004000A49C8610846F8
:100EC000C06900F00400009000BF00BF002211467E
:100ED0001E20FFF7F3FB1E20FFF7E0FB38BD0000EC
:100EE00000080040001002402DE9F04104460D4684
:100EF00000BF94F83C00012802D10220BDE8F08137
:100F0000012084F83C0000BF022084F83D002068E6
:100F1000866826F0770626F47F4620688660286873
:100F2000502833D00CDC202850D004DC00284BD0D3
:100F3000102851D149E0302849D040284CD139E01F
:100F400060282DD0702807D0B0F5805F03D0B0F5B1
:100F5000005F41D10DE040E0D5E902136A682068E6
:100F600000F0C4FD2068866846F077062068866039
:100F700033E0D5E902136A68206800F0B7FD206805
:100F8000806840F480402168886026E0EA686968EB
:100F9000206800F0BFFD5021206800F0B2FD1CE089
:100FA000EA686968206800F0C8FD6021206800F0E8
:100FB000A8FD12E0EA686968206800F0ABFD4021F6
:100FC000206800F09EFD08E000BF00BF00BF296858
:100FD000206800F096FD00E000BF00BF012084F80B
:100FE0003D0000BF002084F83C0000BF00BF85E743
:100FF000704710B5044620680069C0F34000D8B1BE
:101000002068C068C0F34000B0B16FF002002168F2
:101010000861012020772068806900F0030018B182
:101020002046FFF7E5FF05E0204600F0ADF820463A
:1010300000F0ABF80020207720680069C0F3800042
:10104000D8B12068C068C0F38000B0B16FF0040070
:1010500021680861022020772068806900F44070D0
:1010600018B12046FFF7C4FF05E0204600F08CF8D9
:10107000204600F08AF80020207720680069C0F33D
:10108000C000D8B12068C068C0F3C000B0B16FF034
:10109000080021680861042020772068C06900F0FA
:1010A000030018B12046FFF7A3FF05E0204600F03B
:1010B0006BF8204600F069F800202077206800696E
:1010C000C0F30010D8B12068C068C0F30010B0B100
:1010D0006FF0100021680861082020772068C0693F
:1010E00000F4407018B12046FFF782FF05E020466B
:1010F00000F04AF8204600F048F8002020772068E9
:10110000006900F0010058B12068C06800F00100DB
:1011100030B16FF0010021680861204600F036F818
:1011200020680069C0F3C01058B12068C068C0F3DF
:10113000C01030B16FF08000216808612046FFF7D1
:101140006BFE20680069C0F3801058B12068C06849
:10115000C0F3801030B16FF0400021680861204674
:1011600000F015F820680069C0F3401058B12068FD
:10117000C068C0F3401030B16FF0200021680861F2
:101180002046FFF74AFE10BD704770477047704712
:1011900000BFFEE710B5012211460948FFF702FA29
:1011A000012202210648FFF7FDF90022022104482E
:1011B000FFF7F8F9002201210148FFF7F3F910BD0C
:1011C0000008014010B5012211460748FFF7EAF96F
:1011D000002202210448FFF7E5F90122022102481A
:1011E000FFF7E0F910BD00000008014010B5012232
:1011F00011460448FFF7D6F9002201210148FFF704
:10120000D1F910BD0008014000B585B00020019063
:1012100002900390049000BF2C48806940F02000A9
:101220002A4988610846806900F02000009000BFCC
:1012300000BF00BF0846806940F00400886108468E
:10124000806900F00400009000BF00BF00BF0846A6
:10125000806940F0080088610846806900F0080055
:10126000009000BF00BF002201211948FFF79AF942
:101270000122D1021648FFF795F940F601000190CE
:101280000120029003900320049001A91048FEF76A
:10129000F1FF40F2024001900E48029000200390BE
:1012A00001A90B48FEF7E6FF002211460720FFF7D1
:1012B00005FA0720FFF7F2F9002211462820FFF770
:1012C000FDF92820FFF7EAF905B000BD0010024043
:1012D000000C01400000111000B587B00020039001
:1012E00004900590069001900290144814490860FB
:1012F0004720486000211248816040F2E731C16018
:10130000002101618161FFF7B3FD08B1FEF78CFF99
:101310004FF48050039003A90948FFF7E5FD08B199
:10132000FEF782FF00200190029001A90448FFF718
:1013300075FD08B1FEF778FF07B000BD000800405A
:10134000A404002000BFFEE7704770B5002418E039
:1013500004F1B000002100F00EF90021022000F09D
:101360000AF90021102000F006F9002505E001210E
:10137000002000F000F9681CC5B2802DF7DB601C6E
:10138000C4B2082CE4DB70BD10B56420FEF74EFF3C
:101390000021AE2000F0EFF80021022000F0EBF871
:1013A0000021102000F0E7F80021402000F0E3F8D1
:1013B0000021B02000F0DFF80021812000F0DBF8F0
:1013C0000021FF2000F0D7F80021A12000F0D3F881
:1013D0000021A62000F0CFF80021A82000F0CBF8D3
:1013E00000213F2000F0C7F80021C82000F0C3F81A
:1013F0000021D32000F0BFF80021084600F0BBF820
:101400000021D52000F0B7F80021802000F0B3F8CB
:101410000021D82000F0AFF80021052000F0ABF843
:101420000021D92000F0A7F80021F12000F0A3F856
:101430000021DA2000F09FF80021122000F09BF834
:101440000021DB2000F097F80021302000F093F815
:1014500000218D2000F08FF80021142000F08BF87F
:101460000021AF2000F087F810BD70B504460D468E
:1014700005F1B000002100F07EF8A11CC1F30311BA
:1014800041F01000002100F076F8A11C01F00F00DF
:10149000002100F070F870BD2DE9F04707460E46B8
:1014A0009046994600250024A8F12000C5B27F2F60
:1014B00002DD0027B01CC6B2B9F1100F24D13146AD
:1014C0003846FFF7D2FF002408E004EB0511194A63
:1014D000505C012100F04FF8601CC4B2082CF4DB12
:1014E000701CC1B23846FFF7C0FF002409E004EBCE
:1014F000051108310F4A505C012100F03CF8601CD6
:10150000C4B2082CF3DB12E031463846FFF7ADFFDA
:1015100000240AE005EB4501074A02EB4101085DA2
:10152000012100F028F8601CC4B2062CF2DBBDE8F3
:10153000F08700002A240008022200082DE9F0416B
:1015400004460F461546984600260FE0AA5D43461E
:1015500039462046FFF7A0FF04F10800C4B2782CFA
:1015600002DD0024B81CC7B2701CC6B2A85D0028FA
:10157000ECD1BDE8F08170B504460D461DB1E0B276
:1015800000F038FB02E0E0B200F01EFB70BD7047D7
:1015900008B508490968C9084FF47A72B1FBF2F13D
:1015A0004143009100BF00BF00994A1E00920029EC
:1015B000F9D108BD3C04002070471FB5BDF80A10E2
:1015C00000220198FEF7EEFF9DE80F0000F0F8FD05
:1015D000BDF8081000220098FEF7E4FF002000F09C
:1015E00005FDBDF80A1001220198FEF7DBFF00207F
:1015F00000F0FCFCBDF80A1000220198FEF7D2FFB3
:101600001FBD00000FB585B000200190029003902F
:10161000049000BF1548806940F0080013498861B4
:101620000846806900F00800009000BF00BF01225A
:10163000C3210F48FEF7B6FFC3200190012002909E
:1016400003900320049001A90948FEF713FEBDF89A
:101650001C1001220598FEF7A5FFBDF81E100122FF
:101660000698FEF79FFF09B000BD00000010024081
:10167000000801401FB5BDF80A1000220198FEF7CE
:1016800091FF9DE80F0000F09BFDBDF808100122BE
:101690000098FEF787FF002000F0A8FCBDF80A10B4
:1016A00001220198FEF77EFF002000F09FFCBDF8AC
:1016B0000A1000220198FEF775FF1FBD2DE9FF41BA
:1016C00082B0DDE90C85DDE90E6702A80FC800F0E5
:1016D000AEF86806000E009002A80FC800F074F87B
:1016E00002A80FC800F0EBF808F0FF00009002A875
:1016F0000FC800F069F802A80FC800F0E0F802A8CF
:101700000FC800F094F8012000EB4500C0B2009033
:1017100002A80FC800F058F802A80FC800F0CFF8D0
:10172000002412E0701EA04207D00120009002A801
:101730000FC800F013F8385506E00020009002A80A
:101740000FC800F00BF83855641CB442EADB02A85D
:101750000FC800F090F806B0BDE8F0817FB5089E94
:1017600000249DE80F0000F017FD00251DE0BDF8E6
:101770000A1000220198FEF715FF002000F036FC49
:10178000BDF80A1001220198FEF70CFF6006040E56
:10179000BDF808100098FEF7FDFE08B1601CC4B249
:1017A000002000F023FC681CC5B2082DDFDB26B941
:1017B0009DE80F00FFF75EFF03E09DE80F00FFF7D5
:1017C000FCFE204604B070BD7FB5089C9DE80F006C
:1017D00000F0F6FCBDF80A1000220198FEF7E2FEC8
:1017E000002000F003FC00251EE0E209BDF808100F
:1017F0000098FEF7D7FE6006040E002000F0F6FB0E
:10180000BDF80A1001220198FEF7CCFE002000F07E
:10181000EDFBBDF80A1000220198FEF7C3FE002080
:1018200000F0E4FB681CC5B2082DDEDB7FBD1FB5F0
:101830009DE80F0000F0C4FCBDF8081001220098DC
:10184000FEF7B0FEBDF80A1001220198FEF7AAFECD
:10185000002000F0CBFBBDF8081000220098FEF736
:10186000A1FE002000F0C2FBBDF80A100022019882
:10187000FEF798FE1FBD1FB59DE80F0000F0A0FC0D
:10188000BDF80A1000220198FEF78CFEBDF8081082
:1018900000220098FEF786FE002000F0A7FBBDF8AE
:1018A0000A1001220198FEF77DFEBDF80810012202
:1018B0000098FEF777FE002000F098FB1FBD1FB5D3
:1018C0000024BDF8081001220098FEF76BFE9DE889
:1018D0000F0000F061FC002000F088FBBDF80A104A
:1018E00001220198FEF75EFE002000F07FFB0FE072
:1018F000601CC4B2FA2C06DD9DE80F00FFF7BBFFA9
:10190000012004B010BDBDF808100098FEF742FE9B
:10191000BDF808100098FEF73DFE0028E8D1BDF89C
:101920000A1000220198FEF73DFE0020E9E72DE9AC
:10193000FF4182B00CAD95E8E00102A80FC8FFF7A7
:1019400076FF7006000E009002A80FC8FFF73CFF5C
:1019500002A80FC8FFF7B3FFE8B2009002A80FC8B3
:10196000FFF732FF02A80FC8FFF7A9FF00240BE022
:1019700018F80400009002A80FC8FFF725FF02A87E
:101980000FC8FFF79CFF641CBC42F1DB02A80FC824
:10199000FFF771FF022000F029FB06B0BDE8F081DF
:1019A00010B5FEF70BFE10BD00B58FB0282105A8BD
:1019B000FEF7BFFB14216846FEF7BBFB0120059034
:1019C00000040690002007900120099002200C904E
:1019D000C1030D914FF4E0110E9105A8FEF7D0FF61
:1019E00008B1FEF721FC0F2000900220019000209A
:1019F00002904FF48060039000200490022168461A
:101A0000FEF7AEFE08B1FEF70FFC0FB000BD000000
:101A10001148006840F001000F490860084640681E
:101A20000E4908400C494860084600680C490840C7
:101A3000094908600846006820F4802008600846CC
:101A4000406820F4FE0048604FF41F008860C8031F
:101A50000449086070470000001002400000FFF8D1
:101A6000FFFFF6FE08ED00E010B50248FFF7C1FAEF
:101A700010BD0000A404002010B50268184B984265
:101A800008D0B0F1804F05D0164B984202D0164BCB
:101A9000984203D122F070024B681A43104B9842CF
:101AA00008D0B0F1804F05D00E4B984202D00E4BBB
:101AB000984203D122F44072CB681A4322F080038B
:101AC0004C6943EA040202608B68C3620B6883625C
:101AD000034B984201D10B6903630123436110BD9D
:101AE000002C0140000400400008004030B50C46C6
:101AF000816821F47F4142EA03252543294381601F
:101B000030BD0A46816821F0700142F00703194395
:101B10008160704730B50B461446026A056A25F0AD
:101B200001050562816921F0F00141EA041122F00A
:101B30000A021A438161026230BD30B50B46144679
:101B4000056A25F0100505628169026A21F4704179
:101B500041EA043122F0A00242EA031281610262EA
:101B600030BD00BFFEE700002DE9F04105462C46E0
:101B7000002201211348FEF715FD00261DE027462F
:101B800007F08007802F05D1012202210D48FEF7C2
:101B900009FD04E0002202210A48FEF703FD600669
:101BA000040E012211460748FEF7FCFC0022012129
:101BB0000448FEF7F7FC701CC6B2082EDFDBBDE858
:101BC000F08100000008014010B50446FFF7E2FA7A
:101BD0007820FFF7C9FFFFF709FB0020FFF7C4FFDC
:101BE000FFF704FB2046FFF7BFFFFFF7FFFAFFF701
:101BF000E9FA10BD10B50446FFF7CCFA7820FFF7DC
:101C0000B3FFFFF7F3FA4020FFF7AEFFFFF7EEFA5E
:101C10002046FFF7A9FFFFF7E9FAFFF7D3FA10BD57
:101C20000FB4084B10B504A902AA039800F038F8C5
:101C3000044602A9002000F0D4F9204610BC5DF84B
:101C400014FB0000E31F000802480068C0F30220F4
:101C5000704700000CED00E010B5002804DB0A0717
:101C6000130E054A135406E00A07140E034A00F047
:101C70000F031B1FD45410BD00E400E018ED00E07A
:101C800002E008C8121F08C1002AFAD17047704745
:101C9000002001E001C1121F002AFBD170470000A3
:101CA0002DE9FF4F8BB088460546002606E0252823
:101CB0000BD0DDE90D1290476D1C761C28780028AA
:101CC000F5D10FB03046BDE8F08F0024A146A24602
:101CD0000122AE4900E0044315F8013F203B02FA1F
:101CE00003F00842F7D128782A2810D06FF02F028D
:101CF0002878A0F13001092915D809EB890102EBF8
:101D0000410144F0020400EB01096D1CF0E758F8B2
:101D1000041B5FEA010903D544F40054C9F100092A
:101D200044F002046D1C28782E2817D115F8010FF5
:101D300044F004042A280ED06FF02F022878A0F176
:101D4000300109290AD80AEB8A0102EB410100EBB4
:101D5000010A6D1CF2E758F804AB6D1C28786C285A
:101D60000FD006DC4C2817D068280DD06A2814D173
:101D700004E0742810D07A280FD10DE044F4001448
:101D80000AE044F4801401E044F44014697881428C
:101D900002D104F580146D1C6D1C2878692865D06B
:101DA00006DC00288DD0632827D0642806D15DE0AA
:101DB0006E2808D073282AD0752877D0DDE90D1257
:101DC0009047761CE0E0C4F30250022809D00328B3
:101DD0000DD0D8F8001004280DD00E6008F10408CA
:101DE000D2E0D8F80010F217C1E90062F6E7D8F89F
:101DF00000100E80F2E70E70F0E718F8041B8DF863
:101E0000001000208DF80100EB46012003E058F897
:101E100004BB4FF0FF3061074FF0000701D40AE028
:101E20007F1C57450DDA8742FADB1BF807100029A3
:101E3000F6D106E07F1C8742FCDB1BF80710002967
:101E4000F8D1DDE90D23A9EB07008146214600F01A
:101E5000B1F83044C61904E0DDE90D121BF8010B9E
:101E600090477F1EF8D22146484688E058F8040B78
:101E7000C4F302514FF00A0B032900D100B2042928
:101E800000D140B2002802DA40422D2102E02105B3
:101E900005D52B218DF82410012104E006E0E1078F
:101EA00010D02021F6E708AF089113E058F8040B92
:101EB000C4F302514FF00A0B032900D180B2042968
:101EC00000D1C0B20021EEE75946FEF73DF93031AE
:101ED00007F8011D0028F7D1ADEB070000F1200B3A
:101EE000600702D524F4803401E04FF0010ADA459E
:101EF00002DDAAEB0B0000E00020824600EB0B01A4
:101F000008980144A9EB01000A90E00306D4DDE93A
:101F10000D2321460A9800F04DF806444FF00009C1
:101F200008E009A911F80900DDE90D12904709F14F
:101F30000109761C08998945F3DBE0030CD5DDE93E
:101F40000D2321460A9800F035F8064404E0DDE947
:101F50000D1230209047761CBAF10001AAF1010A57
:101F6000F5DC05E0DDE90D1217F8010B9047761C52
:101F7000BBF10001ABF1010BF4DC0A982146DDE96D
:101F80000D2300F005F806446D1C97E609280100B2
:101F90002DE9F041044600251E461746880404D466
:101FA00005E039462020B0476D1C641EF9D528464F
:101FB000BDE8F0812DE9F041044600251E4690461B
:101FC000C80301D5302700E02027880404D505E0A8
:101FD00041463846B0476D1C641EF9D52846BDE819
:101FE000F0810A68531C0B601070704706E0A8214E
:101FF00000BF0A1EA1F1010399B2FAD1021EA0F19D
:102000000100F4D1704700001FB5FEF7E3FAFFF7B7
:10201000CBFCFFF7F9F8FFF75FF955480FC8FFF75A
:10202000F1FA54480FC8FFF7EDFAFFF7ADF9FFF7E3
:102030008CF90B20504908700846012153223123A6
:10204000CDE90032CDE902104A480FC8FFF76FFC16
:102050000820494908700846012153222C23CDE964
:102060000032CDE9021043480FC8FFF760FC08209A
:10207000414908700846012153222D23CDE9003241
:10208000CDE902103B480FC8FFF751FC80203A49C8
:1020900008700846012153222E23CDE90032CDE9F4
:1020A000021034480FC8FFF742FC00203249087084
:1020B0000846012153221E23CDE90032CDE902104A
:1020C0002C480FC8FFF733FC05202B490870084641
:1020D000012153222023CDE90032CDE90210254809
:1020E0000FC8FFF724FC42E0234806215322322385
:1020F000CDE90032CDE902101E480FC8FFF7DEFA25
:102100001D484078000200B21B49097842181BA103
:102110001C48FFF785FD10231A4A00210520FFF710
:102120000DFA1548C078000200B2134989784218A8
:1021300015A11448FFF774FD1023124A022105204F
:10214000FFF7FCF90C484079000200B20A4909790E
:1021500042180FA10B48FFF763FD1023094A042121
:102160000520FFF7EBF94FF4FA70FEF75FF8BBE7D5
:10217000100400202004002001040020783A2538B3
:102180006400000040040020593A25386400000033
:102190007A3A2538640000000FB585B00020019020
:1021A000029003900490BDF81C0001900020029062
:1021B0000120039001A90598FEF75CF809B000BD65
:1021C0000FB585B000200190029003900490BDF8F7
:1021D0001C0001900120029003900320049001A9AB
:1021E0000598FEF747F809B000BD000000000000A8
:1021F00000000102030406070809000000000102B4
:1022000003040000000000000000002F0000000098
:102210000700070000147F147F1400242A7F2A126D
:10222000006264081323003649552250000005035C
:10223000000000001C224100000041221C0000148C
:10224000083E08140008083E0808000000A06000CE
:10225000000808080808000060600000002010085E
:102260000402003E5149453E0000427F40000042CA
:1022700061514946002141454B31001814127F102D
:10228000002745454539003C4A494930000171095C
:10229000050300364949493600064949291E000010
:1022A00036360000000056360000000814224100B7
:1022B00000141414141400004122140800020151E7
:1022C000090600324959513E007C1211127C007FF0
:1022D00049494936003E41414122007F4141221C8B
:1022E000007F49494941007F09090901003E4149F0
:1022F000497A007F0808087F0000417F41000020E4
:1023000040413F01007F08142241007F404040408F
:10231000007F020C027F007F0408107F003E4141D5
:10232000413E007F09090906003E4151215E007FC0
:10233000091929460046494949310001017F010137
:10234000003F4040403F001F2040201F003F4038DA
:10235000403F006314081463000708700807006119
:102360005149454300007F41410000552A552A55F7
:10237000000041417F00000402010204004040408F
:102380004040000001020400002054545478007FB3
:102390004844443800384444442000384444487F8A
:1023A00000385454541800087E0901020018A4A4EF
:1023B000A47C007F080404780000447D40000040B5
:1023C00080847D00007F102844000000417F400091
:1023D000007C04180478007C080404780038444425
:1023E000443800FC242424180018242418FC007C01
:1023F0000804040800485454542000043F4440207A
:10240000003C4040207C001C2040201C003C403010
:10241000403C004428102844001CA0A0A07C00449C
:1024200064544C44141414141414000000000000EC
:1024300000000000000000000000000000F80000A4
:102440000000000000333000000000100C06100CEB
:102450000600000000000000000040C07840C07886
:102460004000043F04043F040400007088FC08306E
:102470000000001820FF211E0000F008F000E01806
:10248000000000211C031E211E0000F008887000BF
:1024900000001E2123241927211010160E00000011
:1024A00000000000000000000000000000E0180430
:1024B0000200000000071820400000020418E0009D
:1024C00000000040201807000000404080F08040DD
:1024D00040000202010F01020200000000F00000B3
:1024E00000000101011F01010100000000000000C7
:1024F000000080B07000000000000000000000003C
:1025000000000001010101010101000000000000C4
:10251000000000303000000000000000000080607B
:102520001804006018060100000000E01008081000
:10253000E000000F102020100F00001010F8000025
:1025400000000020203F20200000007008080888BC
:10255000700000302824222130000030088888488C
:1025600030000018202020110E000000C02010F8BC
:10257000000000070424243F240000F8088888088D
:1025800008000019212020110E0000E01088881892
:102590000000000F112020110E0000380808C83874
:1025A00008000000003F0000000000708808088854
:1025B0007000001C222121221C0000E010080810DD
:1025C000E0000000312222110F00000000C0C00016
:1025D000000000000030300000000000008000001B
:1025E000000000008060000000000000804020101B
:1025F0000800000102040810200040404040404014
:102600004000040404040404040000081020408076
:1026100000000020100804020100007048080808AB
:10262000F0000000003036010000C030C828E8107B
:10263000E0000718272423140B000000C038E00036
:102640000000203C23020227382008F88888887080
:102650000000203F202020110E00C030080808088C
:102660003800071820202010080008F80808081073
:10267000E000203F202020100F0008F88888E8089C
:102680001000203F20202320180008F88888E80840
:102690001000203F200003000000C0300808083868
:1026A000000007182020221E020008F80800000879
:1026B000F808203F210101213F20000808F8080800
:1026C00000000020203F2020000000000808F8083B
:1026D0000800C08080807F00000008F888C02818AB
:1026E0000800203F20012638200008F808000000DC
:1026F0000000203F20202020300008F8F800F8F8E3
:102700000800203F003F003F200008F830C00008CC
:10271000F808203F200007183F00E01008080810C4
:10272000E0000F10202020100F0008F8080808080B
:10273000F000203F210101010000E010080808100E
:10274000E0000F18242438504F0008F88888888843
:102750007000203F2000030C30200070880808081B
:1027600038000038202121221C00180808F8080829
:1027700018000000203F2000000008F808000008B2
:10278000F808001F202020201F000878880000C8BB
:102790003808000007380E010000F80800F80008AB
:1027A000F800033C0700073C0300081868808068B5
:1027B000180820302C03032C30200838C800C838F3
:1027C00008000000203F2000000010080808C8385A
:1027D00008002038262120201800000000FE0202F8
:1027E00002000000007F40404000000C30C00000AC
:1027F0000000000000010638C00000020202FE00D6
:102800000000004040407F0000000000040202027F
:1028100004000000000000000000000000000000B4
:1028200000008080808080808080000202040000A0
:102830000000000000000000000000008080808098
:1028400000000019242222223F2008F80080800086
:102850000000003F112020110E0000000080808049
:102860000000000E11202020110000000080808850
:10287000F800000E112020103F2000008080808092
:102880000000001F222222221300008080F088888E
:1028900088180020203F20200000000080808080D9
:1028A0008000006B94949493600008F8008080800E
:1028B0000000203F210000203F2000809898000069
:1028C00000000020203F2020000000000080989899
:1028D000000000C08080807F000008F80000808039
:1028E0008000203F24022D302000000808F800005E
:1028F00000000020203F2020000080808080808019
:102900008000203F20003F20003F808000808080AA
:102910000000203F210000203F20000080808080B8
:102920000000001F202020201F00808000808000E9
:10293000000080FFA12020110E0000000080808098
:102940008000000E112020A0FF8080808000808009
:10295000800020203F212000010000008080808036
:1029600080000033242424241900008080E080802B
:1029700000000000001F2020000080800000008078
:102980008000001F202020103F20808080000080D9
:10299000808000010E3008060100808000800080E9
:1029A00080800F300C030C300F000080800080808E
:1029B00080000020312E0E312000808080000080B9
:1029C000808080818E701806010000808080808069
:1029D00080000021302C2221300000000000807C8B
:1029E000020200000000003F404000000000FF0025
:1029F000000000000000FF0000000002027C8000D8
:102A000000000040403F00000000000601010202FB
:102A10000404000000000000000000003C2A000840
:102A20000000002040040000980100083C2B000832
:102A300040040020A8040000901C00081116060A9B
:102A4000FE0AC612E012F062F84EFE7DBBC7EF012F
:102A5000053EC7BB7DFE300D080CFEFE0C08206055
:102A6000FEFE60208F7848FE82BABA0309135EAA80
:102A70000101017E6CFEFF0301CBFFFF0F39BBECB0
:102A8000C0C0C0271918F92701392975990B6CFFA7
:102A9000FF0C01491A0C22E1E1E12701396C0F1FFB
:102AA0001801FB1F0F0F092E270136168C42221228
:102AB0000C26FC020202FC3304FE16205844FE40A1
:102AC0002A10015912491E4912A92A0123300A2449
:102AD000A42E24E4242EA424C00AF84A4C48F84822
:102AE0004C4AF82A01013907490D5915991F9918BF
:102AF000091412712BC020A1AB20C00A11300A1298
:102B00000A07027F02070A121E0B0A0A0A7F040242
:102B1000560B980A1F2040404050205F800A719257
:102B20001E2C08014004120212019A641012804AFD
:0C2B30004010312A10DF411324F4000093
:04000005080000ED02
:00000001FF
