:020000040800F2
:10000000C828002001010008291800082D16000842
:100010002518000899060008DB23000800000000EE
:10002000000000000000000000000000B1190008FE
:100030009D060008000000004D1900081922000864
:100040001B0100081B0100081B0100081B01000820
:100050001B0100081B0100081B0100081B01000810
:100060001B0100081B0100081B0100081B01000800
:100070001B0100081B0100081B0100081B010008F0
:100080001B0100081B0100081B0100081B010008E0
:100090001B0100081B0100081B0100081B010008D0
:1000A0001B0100081B0100081B0100081B010008C0
:1000B0001B0100081B010008E12200081B010008C9
:1000C0001B0100081B0100081B0100081B010008A0
:1000D0001B0100081B0100081B0100081B01000890
:1000E000A10600081B0100081B010008DFF80CD066
:1000F00000F088FA00480047412E0008C828002078
:100100000648804706480047FEE7FEE7FEE7FEE7B1
:10011000FEE7FEE7FEE7FEE7FEE7FEE789220008CE
:10012000ED000008202A04DB203A21FA02F0002129
:10013000704721FA02F3D040C2F1200291400843F7
:1001400019467047D2B201E000F8012B491EFBD2DC
:1001500070470022F6E710B513460A4604461946D2
:10016000FFF7F0FF204610BD2DE9FE4F804681EAE3
:100170000300C00F0C46009021F0004123F0004521
:10018000B8EB0200A94105D24046214690461C46E4
:100190000B46024623F00040104347D0270DC7F31B
:1001A0000A00C3F30A510290401A019040286BDA0A
:1001B000C3F3130040F4801B0098924620B1002343
:1001C000D2EB030A63EB0B0B01985946C0F14002D6
:1001D000504600F081F906460D4650465946019AB0
:1001E00000F089F910EB08006141002487EA115200
:1001F00084EAE7731A4340D0009A62B3019A012A55
:100200004FEA075215DC001B61EB02014FF0004280
:1002100002EA0752CDE90042001C41F58011324646
:100220002B4600F089F903B0BDE8F08F4046214627
:10023000F9E7001B61EB0201001C41F58013001877
:100240005B412018A2F5001747EB030140EAD57087
:10025000B6196D4111E06D084FEA360645EAC075E2
:100260004FEA0752001B61EB0201001C41F58011AF
:1002700049084FEA30000019514132462B4603B07D
:10028000BDE8F04F00F049B900980122400000237A
:10029000D0EB020263EBE073009821464FEAE07472
:1002A000B8EB000061EB0401E9E783F000435BE792
:1002B00081F0004158E72DE9FE4F81EA030404F084
:1002C000004421F0004100944FF0000B23F0004364
:1002D00050EA01045ED052EA03045BD0C3F30A542F
:1002E000C1F30A552C44A4F2F3340194A0FB025448
:1002F000C1F3130141F48011C3F3130343F48013DA
:1003000001FB024400FB034E840A970A44EA81542D
:1003100047EA8357A4FB076802958D0A05FB07850A
:100320004FEA932C04FB0C542705029D4FEA065814
:1003300047EA1637B5EB08056EEB070C870E920EF1
:1003400047EA811742EA8312A7FB0201B6EB0B01D1
:1003500064EB00042B0D43EA0C335E1844EB1C5095
:10036000DA465146E7FB0201C5F313044FEA0B33AB
:1003700043EA14534FEA0432019C43EA0603A4F112
:100380000C040294009CCDE900B400F0D5F803B051
:10039000BDE8F08F00200146F9E72DE9F04D81EA34
:1003A000030404F0004B21F0004514464FF0000A0E
:1003B00023F0004150EA050220D054EA01021DD08A
:1003C000C5F30A570246C5F31303C1F31300C1F383
:1003D0000A5640F4801543F48013A7EB0608101B5F
:1003E000D64608F2FD3873EB050002D308F1010888
:1003F00001E092185B41B8F1000F03DA00200146DA
:10040000BDE8F08D00204FF48011064684460EE0D2
:10041000171B73EB050705D3121B63EB050306439C
:100420004CEA010C49084FEA300092185B4150EA4F
:100430000107EDD152EA030012D082EA040083EAF8
:100440000501084305D0101BAB4106D20122002351
:1004500006E000224FF0004302E06FF0010253106B
:100460001AEB06004CEB085110EB0A0041EB0B01B4
:10047000BDE8F04D00F051B80EB5C10F80EAE07054
:100480000844CA07002140F233438DE80E000A46B3
:100490000B4600F051F803B000BD70B5C1F30A522D
:1004A00001F000450024C1F3130140F2FF3341F491
:1004B00080119A4201DA002070BD40F233439A4223
:1004C000A2F2334203DC5242FFF72CFE00E09040E0
:1004D0002C43F1D0404270BD202A04DB203A00FAC0
:1004E00002F1002070479140C2F1200320FA03F38B
:1004F000194390407047202A06DBCB17203A41FA77
:1005000002F043EAE07306E041FA02F3D040C2F1A0
:100510002002914008431946704710B5141E73F12C
:10052000000408DA401C41F1000192185B411A43B3
:1005300001D120F0010010BD2DE9F04D92469B46FF
:1005400011B1B1FA81F202E0B0FA80F220329046A5
:10055000FFF7C2FF04460F4640EA0A0041EA0B01DA
:1005600053465A46084313D0114653EA010019D0A6
:10057000C8F140025046FFF7D5FD05460E465046ED
:1005800059464246FFF7A8FF084305D0012004E082
:1005900020463946BDE8F08D0020054346EAE07666
:1005A0002C4337430A986305E40AA0EB08000022B5
:1005B000FD0A44EA47540A3002D500200146E9E723
:1005C000010510196941DDE9084500196941BDE8D7
:1005D000F04DA2E770B521F0004303430CD0C1F306
:1005E0000A550024D5EB040564EB0403D617AD1AB5
:1005F000B34102DB0020014670BD201841EB0251DF
:1006000070BD0000064C074D06E0E06840F00103B5
:1006100094E8070098471034AC42F6D3FFF76AFD20
:1006200000370008203700080EB540F23341029130
:100630000021CDE900110A460B46FFF77DFF03B00C
:1006400000BD70B58C1810F8015B15F0070301D1DF
:1006500010F8013B2A1106D110F8012B03E010F825
:10066000016B01F8016B5B1EF9D12B0705D4002348
:10067000521E0DD401F8013BFAE710F8013BCB1AEA
:10068000921C03E013F8015B01F8015B521EF9D5DF
:10069000A142D8D3002070BD00BFFEE77047000024
:1006A00010B54FF4805000F025F84FF4004000F0F2
:1006B00021F803480068401C0149086010BD000093
:1006C000480400207047000070B5044600F0BEF9F1
:1006D00006462546681C10B104480078054400BF52
:1006E00000F0B4F9801BA842FAD370BD7C0400204E
:1006F0007047000010B5044604480068204020B14F
:10070000024804602046FFF7F3FF10BD14040140C7
:100710002DE9F8470346002294466EE14FF00108A8
:1007200008FA02F4D1F8008008EA0400A0427DD162
:10073000DFF8DCA2D1F80480A8EB0A09D0453AD052
:1007400014DCB8F1030F50D009DCB8F1000F31D040
:10075000B8F1010F1CD0B8F1020F49D120E0B8F177
:10076000110F18D0B8F1120F42D11EE0B9F5881F51
:1007700025D006DCB9F5803F20D0B9F5801F37D1F0
:100780001AE0B9F5001F18D0B9F5041F30D117E0F1
:10079000D1F80CC02DE0D1F80C8008F1040C28E051
:1007A000D1F80C8008F1080C23E0D1F80C8008F196
:1007B0000C0C1EE000BF00BF00BF00BF00BF00BFA9
:1007C000D1F80880B8F1000F02D14FF0040C0BE013
:1007D000D1F80880B8F1010F03D14FF0080C1C616B
:1007E00002E04FF0080C5C6103E04FF0000C00E009
:1007F00000BF00BFFF2801D8984601E003F10408BC
:100800004646FF2802D84FEA820803E0A2F1080812
:100810004FEA88084746D6F800804FF00F0909FADA
:1008200007F928EA09080CFA07F900E088E048EA25
:100830000908C6F80080D1F8048008F08058B8F1A3
:10084000805F7DD100BFDFF8CC81D8F8188048F0F8
:100850000108DFF8C091C9F81880C846D8F8188098
:1008600008F00108CDF8008000BF00BF4FEAB9389A
:100870004FEA920958F829504FEA82784FEA1879DE
:100880004FF00F0808FA09F825EA0805DFF8888113
:10089000434502D14FF0000816E0DFF88081434560
:1008A00002D14FF001080FE0DFF87481434502D117
:1008B0004FF0020808E0DFF86C81434502D14FF0A9
:1008C000030801E04FF004084FEA82794FEA1979F2
:1008D00008FA09F848EA0505DFF84C814FEA920961
:1008E00048F82950D1F8048008F48038B8F5803FE2
:1008F0000AD1DFF83881D8F8008048EA0008DFF82C
:100900002C91C9F8008009E0DFF82081D8F8008038
:1009100028EA0008DFF81491C9F80080D1F80480B3
:1009200008F40038B8F5003F10D1DFF8008108F175
:100930000408D8F8008048EA0008DFF8F09000E0EA
:100940005AE009F10409C9F800800DE0DFF8DC8005
:1009500008F10408D8F8008028EA0008DFF8CC90F5
:1009600009F10409C9F80080D1F8048008F480185E
:10097000B8F5801F0ED1DFF8B48008F10808D8F868
:10098000008048EA0008DFF8A49009F10809C9F8D6
:1009900000800DE0DFF8948008F10808D8F80080A6
:1009A00028EA0008DFF8849009F10809C9F80080F6
:1009B000D1F8048008F40018B8F5001F0ED1DFF854
:1009C0006C8008F10C08D8F8008048EA0008DFF8CD
:1009D0005C9009F10C09C9F800800DE0DFF84C804B
:1009E00008F10C08D8F8008028EA0008DFF83C90ED
:1009F00009F10C09C9F80080521CD1F8008028FACE
:100A000002F8B8F1000F7FF489AEBDE8F887000066
:100A1000000011100010024000080140000C0140CD
:100A20000010014000140140080001400004014092
:100A3000024693680B400BB1012000E00020704794
:100A40000AB1016101E00B040361704701480068CD
:100A500070470000740400200348006803490978C7
:100A60000844014908607047740400207C04002099
:100A700010B50848006840F01000064908600320DF
:100A800000F0A8F8002000F007F800F02BF8002094
:100A900010BD00000020024070B504460E480078EA
:100AA0004FF47A71B1FBF0F00C490968B1FBF0F535
:100AB000284600F0E5FB08B1012070BD102C07D2DC
:100AC00000222146501E00F047F80548046001E06E
:100AD0000120F2E70020F0E77C04002080040020E1
:100AE0007804002008B500BF1148806940F001007B
:100AF0000F4988610846806900F00100009000BF3E
:100B000000BF00BF0846C06940F08050C861084679
:100B1000C06900F08050009000BF00BF00BF0549D1
:100B2000486820F0E06040F00070486000BF08BDF9
:100B3000001002400000014001460846002809DB81
:100B400000F01F0301229A4043099B0003F1E023B8
:100B5000C3F8002100BF70472DE9F05F80460D46C5
:100B60001646002701F0AEFC074639462A463346B2
:100B700001F00700C0F1070ABAF1040F02D94FF0E3
:100B8000040A01E0C0F1070AD14600F1040ABAF1F3
:100B9000070F02D24FF0000A01E0A0F1030AD44689
:100BA0004FF0010A0AFA09FAAAF1010A0AEA020A4E
:100BB0000AFA0CFA4FF0010B0BFA0CFBABF1010B2C
:100BC0000BEA030B4AEA0B042146404601F082FC83
:100BD000BDE8F09F00BF00F00702064B19684FF612
:100BE000FF031940044B0B4343EA0221014B1960F8
:100BF00000BF70470CED00E00000FA0570B5044638
:100C00000D460CB9012070BD5A48006800F007007D
:100C1000A8420ED25748006820F0070028435549E3
:100C200008600846006800F00700A84201D00120D3
:100C3000E9E7207800F0020002281DD1207800F0BA
:100C40000400042805D14C48406840F4E0604A495B
:100C50004860207800F00800082805D14648406820
:100C600040F46050444948604348406820F0F00038
:100C7000A168084340494860207800F0010078B33B
:100C80006068012806D13C48006800F4003090B943
:100C90000120B8E76068022806D13748006800F0F4
:100CA000007040B90120AEE73348006800F0020050
:100CB00008B90120A7E73048406820F003006168C8
:100CC00008432D494860FFF7C1FE064609E0FFF7DB
:100CD000BDFE801B41F28831884202D9032092E791
:100CE00007E02548406800F00C006168B0EB810F18
:100CF000EDD12048006800F00700A8420ED91D4839
:100D0000006820F0070028431A4908600846006878
:100D100000F00700A84201D0012074E7207800F01D
:100D20000400042807D11448406820F4E060E1681A
:100D3000084311494860207800F00800082808D1CD
:100D40000D48406820F46050216940EAC1000A491A
:100D5000486000F019F808494968C1F30311074ACF
:100D6000515CC8400649086006480068FFF794FED9
:100D7000002048E700200240001002402A35000809
:100D80008004002078040020F0B585B00FF26C0CD0
:100D90009CE8E01001A8A0E8E0101CA52D680095D3
:100DA00000210022002300240020194D696801F071
:100DB0000C05F5B1042D02D0082D19D101E015481C
:100DC00019E001ADC1F38346AC5D01F4803555B146
:100DD0000F4D6D68C5F340451DF805200D4D654369
:100DE000B5FBF2F302E00C4D04FB05F3184602E0FC
:100DF00000BF084800BF00BF05B0F0BD02030405F6
:100E0000060708090A0B0C0D0E0F10100102000056
:100E10000010024000127A0000093D00F8B50446B7
:100E20000CB90120F8BD207800F00100002878D02E
:100E3000F848406800F00C0004280CD0F5484068E1
:100E400000F00C00082811D1F248406800F480300E
:100E5000B0F5803F0AD1EF48006800F40030002868
:100E60005FD0606800285CD10120DBE700BF6068CC
:100E7000B0F5803F06D1E748006840F48030E5498E
:100E8000086028E0606858B9E248006820F48030C3
:100E9000E04908600846006820F4802008601AE0F5
:100EA0006068B0F5A02F0BD1DA48006840F48020CC
:100EB000D84908600846006840F4803008600AE0BD
:100EC000D448006820F48030D249086008460068A1
:100ED00020F48020086000BF606888B1FFF7B6FD8D
:100EE000054606E0FFF7B2FD401B642801D9032048
:100EF00098E7C848006800F400300028F2D010E0FD
:100F0000FFF7A4FD054606E0FFF7A0FD401B64289F
:100F100001D9032086E7BF48006800F400300028AC
:100F2000F2D1207800F00200022857D1B948406879
:100F300000F00C0050B1B748406800F00C000828E1
:100F400018D1B448406800F4803098B9B1480068BE
:100F500000F0020020B12069012801D0012061E7E2
:100F6000AC48006820F0F800616940EAC100A94976
:100F7000086033E02069E8B10120A7490860FFF765
:100F800065FD054606E0FFF761FD401B022801D91B
:100F9000032047E79F48006800F002000028F2D0D5
:100FA0009C48006820F0F800616940EAC100994956
:100FB000086013E0002098490860FFF747FD0546E8
:100FC00006E0FFF743FD401B022801D9032029E773
:100FD0009048006800F002000028F2D1207800F06C
:100FE000080008282DD1A069B8B101208B490860FC
:100FF000FFF72CFD054606E0FFF728FD401B022801
:1010000001D903200EE78348406A00F0020000285F
:10101000F2D0012000F09CFC13E000207F49086022
:10102000FFF714FD054606E0FFF710FD401B022800
:1010300001D90320F6E67748406A00F00200002854
:10104000F2D1207800F00400042873D10027714801
:10105000C06900F0805070B900BF6E48C06940F0B0
:1010600080506C49C8610846C06900F0805000900B
:1010700000BF00BF01276A48006800F48070B0B963
:101080006748006840F4807065490860FFF7DEFC3F
:10109000054606E0FFF7DAFC401B642801D903206F
:1010A000C0E65F48006800F480700028F2D000BFFE
:1010B000E068012806D15748006A40F00100554910
:1010C000086227E0E06858B95248006A20F0010041
:1010D000504908620846006A20F00400086219E0DE
:1010E000E06805280BD14B48006A40F004004949EC
:1010F00008620846006A40F0010008620AE04548BC
:10110000006A20F00100434908620846006A20F0A6
:101110000400086200BFE068A0B1FFF797FC054635
:1011200009E0FFF793FC401B41F28831884202D965
:10113000032077E622E03748006A00F0020000282A
:10114000EFD012E0FFF782FC054608E0FFF77EFCD7
:10115000401B41F28831884201D9032062E62D48C4
:10116000006A00F002000028F0D1012F05D12948C3
:10117000C06920F080502749C86100BFE069C8B34A
:101180002448406800F00C00082860D0E06902287C
:1011900048D1002020490866FFF758FC054606E0C4
:1011A000FFF754FC401B022801D903203AE61948F6
:1011B000006800F000700028F2D1206AB0F5803F8E
:1011C00007D11448406820F40030A1680843114951
:1011D0004860D4E9080108430E49496821F47411B4
:1011E00008430C49486001200B490866FFF72EFCB4
:1011F000054607E03DE0FFF729FC401B022801D926
:1012000003200FE60348006800F000700028F2D0C9
:101210002FE00000001002400000424280044242E1
:1012200000700040002014490866FFF70FFC0546D7
:1012300006E0FFF70BFC401B022801D90320F1E573
:101240000E48006800F000700028F2D111E0E0695B
:10125000012800D1E6E50948466806F48031206A95
:10126000814204D106F47011606A814201D00120EC
:10127000D8E50020D6E50000000042420010024000
:1012800070B504462546681EB0F1807F01D3012069
:101290000FE0681E4FF0E02148610F214FF0FF3052
:1012A00001F018F900204FF0E02188610720086163
:1012B000002070BD7047704710B5024600BF92F81D
:1012C0003C00012801D1022010BD012082F83C0021
:1012D00000BF022082F83D001068436810688468EF
:1012E00023F070030868034324F080044868044333
:1012F0001068436010688460012082F83D0000BFE0
:10130000002082F83C0000BF00BFDDE710B50446B6
:101310000CB9012010BD94F83D0028B9002084F8D4
:101320003C00204600F00CF8022084F83D00211D0E
:10133000206800F0DDFF012084F83D000020E9E78F
:1013400038B504460D492068884215D100BF0C48C5
:10135000C06940F004000A49C8610846C06900F04D
:101360000400009000BF00BF002211461E20FFF7BE
:10137000F3FB1E20FFF7E0FB38BD00000008004033
:10138000001002402DE9F04104460D4600BF94F8DC
:101390003C00012802D10220BDE8F081012084F840
:1013A0003C0000BF022084F83D002068866826F0DB
:1013B000770626F47F46206886602868502833D058
:1013C0000CDC202850D004DC00284BD0102851D150
:1013D00049E0302849D040284CD139E060282DD050
:1013E000702807D0B0F5805F03D0B0F5005F41D121
:1013F0000DE040E0D5E902136A68206800F0B2FF12
:101400002068866846F077062068866033E0D5E974
:1014100002136A68206800F0A5FF2068806840F425
:1014200080402168886026E0EA686968206800F0EA
:10143000ADFF5021206800F0A0FF1CE0EA68696859
:10144000206800F0B6FF6021206800F096FF12E0EF
:10145000EA686968206800F099FF4021206800F080
:101460008CFF08E000BF00BF00BF2968206800F0C3
:1014700084FF00E000BF00BF012084F83D0000BFF2
:10148000002084F83C0000BF00BF85E7704710B51E
:10149000044620680069C0F34000D8B12068C068E5
:1014A000C0F34000B0B16FF0020021680861012074
:1014B00020772068806900F0030018B12046FFF70C
:1014C000E5FF05E0204600F0ADF8204600F0ABF85F
:1014D0000020207720680069C0F38000D8B1206820
:1014E000C068C0F38000B0B16FF0040021680861EB
:1014F000022020772068806900F4407018B12046EF
:10150000FFF7C4FF05E0204600F08CF8204600F00D
:101510008AF80020207720680069C0F3C000D8B1A5
:101520002068C068C0F3C000B0B16FF00800216847
:101530000861042020772068C06900F0030018B11A
:101540002046FFF7A3FF05E0204600F06BF8204699
:1015500000F069F80020207720680069C0F30010CF
:10156000D8B12068C068C0F30010B0B16FF01000AF
:1015700021680861082020772068C06900F4407065
:1015800018B12046FFF782FF05E0204600F04AF838
:10159000204600F048F8002020772068006900F01D
:1015A000010058B12068C06800F0010030B16FF050
:1015B000010021680861204600F036F820680069C3
:1015C000C0F3C01058B12068C068C0F3C01030B17B
:1015D0006FF08000216808612046FFF76BFE2068ED
:1015E0000069C0F3801058B12068C068C0F3801053
:1015F00030B16FF0400021680861204600F015F816
:1016000020680069C0F3401058B12068C068C0F37A
:10161000401030B16FF02000216808612046FFF7CC
:101620004AFE10BD704770477047704700BFFEE725
:1016300010B5012291020A48FFF702FA0122D102F5
:101640000748FFF7FDF900224FF400610448FFF757
:10165000F7F900224FF480610148FFF7F1F910BD5E
:10166000000C014010B5012291020748FFF7E8F98C
:1016700000224FF400610448FFF7E2F90122D10291
:101680000148FFF7DDF910BD000C014010B5012243
:1016900091020548FFF7D4F900224FF48061024817
:1016A000FFF7CEF910BD0000000C014000B585B079
:1016B0000020019002900390049000BF3A48806996
:1016C00040F01000384988610846806900F0100039
:1016D000009000BF00BF00BF0846806940F02000B6
:1016E00088610846806900F02000009000BF00BFBC
:1016F00000BF0846806940F008008861084680699C
:1017000000F00800009000BF00BF00BF08468069DD
:1017100040F0040088610846806900F004000090F1
:1017200000BF00BF012242F603412048FFF788F9BD
:10173000002204211D48FFF783F94FF40050019067
:10174000002002900120039001A91948FEF7E0FF54
:1017500042F607400190012002900390032004907C
:1017600001A91248FEF7D4FF4FF410400190114830
:1017700002900020039001A90C48FEF7C9FF4FF426
:1017800048700190002002900120039001A90748B1
:10179000FEF7BEFF002211462820FFF7DDF92820C2
:1017A000FFF7CAF905B000BD00100240000C01406F
:1017B000001001400000111000B587B00020039018
:1017C0000490059006900190029014481449086016
:1017D0004720486000211248816040F2E731C16033
:1017E000002101618161FFF791FD08B1FEF76AFFF9
:1017F0004FF48050039003A90948FFF7C3FD08B1D7
:10180000FEF760FF00200190029001A90448FFF755
:1018100053FD08B1FEF756FF07B000BD00080040B9
:101820008804002000BFFEE7704710B56420FEF773
:101830004BFF0021AE2000F07DF80021022000F0D7
:1018400079F80021102000F075F80021402000F008
:1018500071F80021B02000F06DF80021812000F027
:1018600069F80021FF2000F065F80021A12000F0B8
:1018700061F80021A62000F05DF80021A82000F00A
:1018800059F800213F2000F055F80021C82000F051
:1018900051F80021D32000F04DF80021084600F057
:1018A00049F80021D52000F045F80021802000F003
:1018B00041F80021D82000F03DF80021052000F07B
:1018C00039F80021D92000F035F80021F12000F08E
:1018D00031F80021DA2000F02DF80021122000F06C
:1018E00029F80021DB2000F025F80021302000F04D
:1018F00021F800218D2000F01DF80021142000F0B7
:1019000019F80021AF2000F015F810BD70B504469D
:101910000D4605F1B000002100F00CF8102141EA5D
:101920001410002100F006F804F00F00002100F070
:1019300001F870BD70B504460D461DB1E0B200F06F
:1019400097FD02E0E0B200F07DFD70BD7047000041
:1019500008B508490968C9084FF47A72B1FBF2F179
:101960004143009100BF00BF00994A1E0092002928
:10197000F9D108BD8004002070B5002412E0214692
:101980000020FFF7C3FF002508E0084901EB85119F
:10199000085D0121FFF7CEFF681CC5B2802DF4DB86
:1019A000601CC4B2082CEADB70BD0000C804002033
:1019B000704700002DE9FC5F0646894692460025E7
:1019C00054465046FEF758FD07460022544BFEF79A
:1019D0006FFCCDE90001FEF760FD834609EB0A01CB
:1019E00030460C9A00F064F9A9EB0A0130460C9AD3
:1019F00000F05EF906EB0A0049460C9A00F058F92F
:101A0000A6EB0A0049460C9A00F052F982E0BBF1BD
:101A1000000F40DB281B022101FB00B000F1050B89
:101A20006D1C641E04EB0901A8190C9A00F040F922
:101A300004EB09016A4290190C9A00F039F905EBA0
:101A40000901A0190C9A00F033F905EB0901624273
:101A500090190C9A00F02CF9624202EB0901A819C6
:101A60000C9A00F025F9624202EB09016A429019D2
:101A70000C9A00F01DF96A4202EB0901A0190C9AB8
:101A800000F016F96A4202EB0901624290190C9AC1
:101A900000F00EF93EE0022000FB05B000F1030B60
:101AA0006D1C00BF04EB0901A8190C9A00F000F9A5
:101AB00004EB09016A4290190C9A00F0F9F805EB61
:101AC0000901A0190C9A00F0F3F805EB0901624234
:101AD00090190C9A00F0ECF8624202EB0901A81987
:101AE0000C9A00F0E5F8624202EB09016A42901993
:101AF0000C9A00F0DDF86A4202EB0901A0190C9A79
:101B000000F0D6F86A4202EB0901624290190C9A81
:101B100000F0CEF8A542FFF67AAFBDE8FC9F0000CA
:101B20000000F43F2DE9F04F0746884691469A465B
:101B3000DDF828B0A9EB0706AAEB0805002E5ADB52
:101B4000002D2BDBAE4214DB304606EBD071A5EB4B
:101B500061040BE05A464146384600F0A9F8002CD3
:101B600002DD08F10108A41B7F1C2C444F45F1DD68
:101B70009CE0284605EBD071A6EB61040BE05A46C9
:101B80004146384600F094F8002C01DD7F1C641BB0
:101B900008F101083444D045F1DD87E06D42AE42E2
:101BA00014DB304606EBD071A5EB61040BE05A461E
:101BB0004146384600F07CF8002C02DDA8F101080F
:101BC000A41B7F1C2C444F45F1DD6FE0284605EB3C
:101BD000D071A6EB61040BE05A464146384600F04E
:101BE00067F8002C01DD7F1C641BA8F10108344458
:101BF000D045F1DA5AE07642002D2BDBAE4214DB01
:101C0000304606EBD071A5EB61040BE05A46414625
:101C1000384600F04DF8002C02DD08F10108A41B45
:101C20007F1E2C444F45F1DA40E0284605EBD07189
:101C3000A6EB61040BE05A464146384600F038F8FE
:101C4000002C01DD7F1E641B08F101083444D045DF
:101C5000F1DD2BE06D42AE4214DB304606EBD07175
:101C6000A5EB61040BE05A464146384600F020F8E7
:101C7000002C02DDA8F10108A41B7F1E2C444F4557
:101C8000F1DA13E0284605EBD071A6EB61040BE016
:101C90005A464146384600F00BF8002C01DD7F1E05
:101CA000641BA8F101083444D045F1DABDE8F08F97
:101CB00070B505460E46144624B1012C08D0022CFE
:101CC00024D10BE001223146284600F05FF870BDB8
:101CD00002223146284600F059F8F8E731462846F6
:101CE00000F02EF880B1012802D002280DD105E0C5
:101CF00002223146284600F049F8E8E70122314641
:101D0000284600F043F8E2E7E1E7E0E700BFDEE75E
:101D100010B5024600200EE0002109E00AB90023B8
:101D200001E04FF0FF33054C04EB80146354491C71
:101D30000829F3D3401C8028EED310BDC80400202E
:101D400070B50346002B05DB002903DB7F2B01DC8C
:101D50003F2901DD002070BD0A46C81701EB507015
:101D6000C010094D05EB8315285C0C46CD1701EB1F
:101D70005575ED10A1EBC5060125B540A84308B97E
:101D80000220E8E70120E6E7C8040020F0B503469A
:101D9000144604B9F0BD002B05DB002903DB7F2BC3
:101DA00001DC3F2900DDF5E7E4B3012C02D0022C71
:101DB0003AD11BE0CD1701EB5575ED101B4E06EB2C
:101DC0008316755D0A46CE1701EB5676F610A1EB29
:101DD000C6070126BE4035430846CE1701EB5676AE
:101DE000F610124F07EB8317BD55D3E7CD1701EB64
:101DF0005575ED100D4E06EB8316755D0A46CE1730
:101E000001EB5676F610A1EBC6070126BE40B5439E
:101E10000846CE1701EB5676F610044F07EB8317F2
:101E2000BD55B7E7FFE7B5E700BFB3E7C80400203B
:101E30001FB5BDF80A1000220198FEF701FE9DE8CB
:101E40000F0001F05DFBBDF8081000220098FEF7BE
:101E5000F7FD002000F0E6FFBDF80A10012201980E
:101E6000FEF7EEFD002000F0DDFFBDF80A100022B5
:101E70000198FEF7E5FD1FBD0FB585B0002001906C
:101E800002900390049000BF1648806940F008005B
:101E9000144988610846806900F00800009000BF7E
:101EA00000BF012240F603410F48FEF7C9FD40F68E
:101EB000034001900120029003900320049001A9A7
:101EC0000948FEF725FCBDF81C1001220598FEF715
:101ED000B7FDBDF81E1001220698FEF7B1FD09B04E
:101EE00000BD000000100240000801401FB5BDF811
:101EF0000A1000220198FEF7A3FD9DE80F0001F0F3
:101F0000FFFABDF8081001220098FEF799FD0020A5
:101F100000F088FFBDF80A1001220198FEF790FD3D
:101F2000002000F07FFFBDF80A1000220198FEF7A4
:101F300087FD1FBD2DE9FF4182B0DDE90C85DDE99C
:101F40000E6702A80FC800F0AEF86806000E0090F9
:101F500002A80FC800F074F802A80FC800F0EBF850
:101F600008F0FF00009002A80FC800F069F802A86E
:101F70000FC800F0E0F802A80FC800F094F80120A4
:101F800000EB4500C0B2009002A80FC800F058F85E
:101F900002A80FC800F0CFF8002412E0701EA04283
:101FA00007D00120009002A80FC800F013F83855A0
:101FB00006E00020009002A80FC800F00BF838558A
:101FC000641CB442EADB02A80FC800F090F806B027
:101FD000BDE8F0817FB5089E00249DE80F0001F068
:101FE0007BFA00251DE0BDF80A1000220198FEF7DB
:101FF00027FD002000F016FFBDF80A10012201980D
:10200000FEF71EFD6006040EBDF808100098FEF7EE
:102010000FFD08B1601CC4B2002000F003FF681C73
:10202000C5B2082DDFDB26B99DE80F00FFF75EFF84
:1020300003E09DE80F00FFF7FBFE204604B070BDF3
:102040007FB5089C9DE80F0001F05AFABDF80A1010
:1020500000220198FEF7F4FC002000F0E3FE0025CA
:102060001EE0E209BDF808100098FEF7E9FC6006E2
:10207000040E002000F0D6FEBDF80A1001220198DF
:10208000FEF7DEFC002000F0CDFEBDF80A100022B5
:102090000198FEF7D5FC002000F0C4FE681CC5B214
:1020A000082DDEDB7FBD1FB59DE80F0001F028FA8B
:1020B000BDF8081001220098FEF7C2FCBDF80A1016
:1020C00001220198FEF7BCFC002000F0ABFEBDF839
:1020D000081000220098FEF7B3FC002000F0A2FEDA
:1020E000BDF80A1000220198FEF7AAFC1FBD1FB51B
:1020F0009DE80F0001F004FABDF80A1000220198D3
:10210000FEF79EFCBDF8081000220098FEF798FC30
:10211000002000F087FEBDF80A1001220198FEF7AA
:102120008FFCBDF8081001220098FEF789FC002002
:1021300000F078FE1FBD1FB50024BDF80810012275
:102140000098FEF77DFC9DE80F0001F0C5F9002026
:1021500000F068FEBDF80A1001220198FEF770FC3D
:10216000002000F05FFE0FE0601CC4B2FA2C06DD18
:102170009DE80F00FFF7BBFF012004B010BDBDF8C4
:1021800008100098FEF754FCBDF808100098FEF700
:102190004FFC0028E8D1BDF80A1000220198FEF794
:1021A0004FFC0020E9E72DE9FF4182B00CAD95E836
:1021B000E00102A80FC8FFF776FF7006000E00903E
:1021C00002A80FC8FFF73CFF02A80FC8FFF7B3FF34
:1021D000E8B2009002A80FC8FFF732FF02A80FC8AC
:1021E000FFF7A9FF00240BE018F80400009002A8F4
:1021F0000FC8FFF725FF02A80FC8FFF79CFF641C5C
:10220000BC42F1DB02A80FC8FFF771FF022000F00B
:1022100009FE06B0BDE8F08110B5FEF71DFC10BD4B
:1022200000B58FB0282105A8FDF793FF142168465B
:10223000FDF78FFF01200590000406900020079015
:102240000120099002200C90C1030D914FF4E01180
:102250000E9105A8FEF7E2FD08B1FEF733FA0F2054
:10226000009002200190002002904FF480600390C3
:102270000020049002216846FEF7C0FC08B1FEF77A
:1022800021FA0FB000BD00001148006840F00100C5
:102290000F490860084640680E4908400C494860EC
:1022A000084600680C49084009490860084600686B
:1022B00020F4802008600846406820F4FE00486052
:1022C0004FF41F008860C80304490860704700008D
:1022D000001002400000FFF8FFFFF6FE08ED00E0EE
:1022E00010B50248FFF7D3F810BD000088040020A5
:1022F00010B50268184B984208D0B0F1804F05D055
:10230000164B984202D0164B984203D122F070022D
:102310004B681A43104B984208D0B0F1804F05D05B
:102320000E4B984202D00E4B984203D122F44072D9
:10233000CB681A4322F080034C6943EA040202602E
:102340008B68C3620B688362034B984201D10B69AF
:1023500003630123436110BD002C014000040040D1
:102360000008004030B50C46816821F47F4142EA04
:10237000032525432943816030BD0A46816821F049
:10238000700142F0070319438160704730B50B4676
:102390001446026A056A25F001050562816921F08B
:1023A000F00141EA041122F00A021A43816102623B
:1023B00030BD30B50B461446056A25F010050562A0
:1023C0008169026A21F4704141EA043122F0A002DD
:1023D00042EA03128161026230BD00BFFEE70000E5
:1023E0002DE9F04105462C4600224FF48061144847
:1023F000FEF726FB00261FE0274607F08007802F08
:1024000005D10122D1020E48FEF71AFB05E0002299
:102410004FF400610A48FEF713FB6006040E012228
:1024200091020748FEF70CFB00224FF4806104483C
:10243000FEF706FB701CC6B2082EDDDBBDE8F0819E
:10244000000C014010B50446FFF7F2F87820FFF7C2
:10245000C7FFFFF71BF90020FFF7C2FFFFF716F9D0
:102460002046FFF7BDFFFFF711F9FFF7FBF810BD9E
:1024700010B50446FFF7DCF87820FFF7B1FFFFF74F
:1024800005F94020FFF7ACFFFFF700F92046FFF702
:10249000A7FFFFF7FBF8FFF7E5F810BD490050EA8A
:1024A000C12018BF04204A0D18BF40F0010040F2BF
:1024B000FF72B2EB515F08BF40F00200012808BF75
:1024C0000520704702480068C0F3022070470000F2
:1024D0000CED00E010B5002804DB0A07130E054AD6
:1024E000135406E00A07140E034A00F00F031B1FE3
:1024F000D45410BD00E400E018ED00E02DE9F74FE2
:10250000144694B00021C4E902111599079121F0F5
:102510000045C9498D4206DC1599C4E9000117B090
:102520000020BDE8F08FC549DFF814A3A9423CDDC7
:102530000799C44E0029C44FC44A1599534619DD62
:10254000FDF7B3FE554506D0C14AC24BFDF7ADFEBF
:10255000C4E900010AE04FF0D352BE4BFDF7A5FEDF
:1025600032463B46FDF7A1FEC4E9000117B0012049
:10257000BDE8F08FFDF7F8FD554506D0B44AB54BE0
:10258000FDF7F2FDC4E900010AE04FF0D352B14B70
:10259000FDF7EAFD32463B46FDF7E6FDC4E90001E2
:1025A00017B04FF0FF30BDE8F08FAB49A942159945
:1025B00078DB21F0004183468846A84AA84BFDF706
:1025C0007AFE0022A74BFDF7CFFDFDF766FF0990CD
:1025D000FDF752FF06460F469C4A5346FDF76BFE39
:1025E00043465A46FDF764FE80468A46984A994B10
:1025F00030463946FDF75FFE2A0D01250B92424613
:102600005346FDF755FE032DC4E9000139D00B9860
:10261000C1F30A51401A05EB45111139814230DAF4
:102620009148C346784400EB0510CDF80CA00C90FF
:10263000D0E9002330463946FDF73DFE02460B4601
:102640000491069058460399FDF72FFE80468A466E
:1026500002460B4658460399FDF727FE049B069A4F
:10266000FDF723FE83460C9803913946D0E90223F7
:102670003046FDF720FE5A46039BFDF716FE6D1C03
:10268000BDE707980028A2BF099817B0BDE8F08FF2
:10269000616881F000416160099817B04042BDE86F
:1026A000F08FFFE784461598C1F31301C0F30A5079
:1026B000A0F2F5304FEA601800F01F06C6F12000C6
:1026C000139000200690079041F4801E05206D466F
:1026D00076B1664A08EB00017A4452F8213002EBE9
:1026E0008101B3404A68139922FA01F1194305E0C8
:1026F0005F4908EB0002794451F82210A1FB0E2734
:10270000A1FB0C131A449A4234BF0123002303EBAC
:10271000070A05EB8003D3E901B70F448F4234BFAA
:102720000121002193448B4411B1934502D903E068
:10273000934501D2012100E00021C3E901B75144D2
:1027400045F82010011EA0F10100C1DC0298059F90
:1027500000F10050800F12900298DDE903568000CE
:10276000FDF78AFE834628460D91FDF75DFF6FF069
:102770001D02FDF72FFFCDE90E013046FDF754FF96
:102780006FF03D02FDF726FF80468A463846FDF78A
:102790004BFF6FF05D02FDF71DFF074642465346B3
:1027A0001191FDF7E1FCDDE90E23FDF7DDFC5A4652
:1027B0000D9BFDF7D9FC00250E465A4628460D9B79
:1027C000FDF773FDDDE90E23FDF76FFD424653462D
:1027D000FDF76BFD3A46119BFDF76AFDDFF898A007
:1027E000244A5346FDF767FD07468846234A244B93
:1027F00031462846FDF75FFD3A464346FDF7B4FCF7
:10280000074688464FF0A842534631462846FDF712
:1028100052FD3A464346FDF7A7FC159A12F0004FC9
:1028200004D0129A81F0004152421292C4E9000190
:10283000129817B0BDE8F08FFB21E93F7CD9024028
:10284000FB21F93F7370032E8A19A33B000040540B
:102850003163621A61B4D03DFB21394183C8C96D2F
:10286000305FE43F0000E03FE80F0000640F00002D
:10287000460F0000182D4454FB21F93D3326A611C4
:10288000460B113C2DE9FF4D21F0004807460C4650
:10289000B8F1795F08DAFDF700FE002801BF0020DB
:1028A000324904B0BDE8F08D3A4623461046194639
:1028B000FDF701FD054602462D480E460B46062152
:1028C000784400F05DF82A463346FDF7F4FCDDE974
:1028D000022382468B4638462146FDF7ECFC04462F
:1028E0000F4652465B4628463146FDF7E4FC224639
:1028F0003B46FDF7DAFC07468A464FF0FF32284692
:102900003146FDF767FE1B4A90450ADA3A465346C0
:10291000FDF7CBFC04B00022BDE8F04D134BFDF7F2
:10292000C7BC154A4245A8BFA8F500154FF00004E2
:10293000B8BF124D22462B46FDF7B7FC0646884627
:1029400022462B4600200949FDF7AFFC04460D4600
:102950003A46534630464146FDF7A7FC04B02246AE
:102960002B46BDE8F04DFDF7A3BC00000000F03F92
:102970001C0D00003333D33F0000E93F0000D23F7D
:102980002DE9F0414F1E00EBC7010446D1E90001DB
:1029900015461E4637F006020DD02A463346FDF78F
:1029A0008AFC7F1E04EBC703D3E90023FDF7DCFBA1
:1029B00037F00602F1D1022F25D0042F13D0062FB5
:1029C00018BFBDE8F0812A463346FDF774FCD4E910
:1029D0000A23FDF7C9FB2A463346FDF76CFCD4E910
:1029E0000823FDF7C1FB2A463346FDF764FCD4E912
:1029F0000623FDF7B9FB2A463346FDF75CFCD4E914
:102A00000423FDF7B1FB2A463346FDF754FCD4E915
:102A10000223FDF7A9FB2A463346FDF74CFCD4E917
:102A20000023BDE8F041FDF79FBB00002DE9FF4DFD
:102A3000054621F0004084B00C46B0F1795F0BDA16
:102A40002846FFF72BFD042808BF00F06FF8284642
:102A500008B02146BDE8F08D2A460B461046FDF72A
:102A60002AFC06460F462A462346FDF724FC8046EC
:102A700026488A4632463B4605217844FFF780FFC8
:102A800083461098029160B3214A224B404651463A
:102A9000FDF711FCCDE900015A4640465146029B24
:102AA000FDF709FC82468846DDE906014FF0FF325A
:102AB000FDF790FD52464346FDF7F7FB32463B4695
:102AC000FDF7F9FBDDE90623FDF7EFFBDDE9002368
:102AD000FDF7EBFB08B02A462346BDE8F04DFDF7B5
:102AE000E7BB0B465A4630463946FDF7E4FB084A39
:102AF000084BFDF739FB42465346FDF7DCFB08B0B7
:102B00002A462346BDE8F04DFDF72EBB5A0C0000C7
:102B1000495555555555C5BF0122FDF75BBD0022EE
:102B2000134610461146FDF738BC0000024A00204B
:102B30001107FDF74FBD000001FDFFFF02E008C8CF
:102B4000121F08C1002AFAD170477047002001E027
:102B500001C1121F002AFBD1704700000149086023
:102B600070470000840400202DE9F84F04460D460C
:102B700021F0004000917349814211DC7249884282
:102B800001DC06D12CB120462946BDE8F84FFFF7FD
:102B9000C3BF6E48002DCCBF6D496E49BDE8F88FAC
:102BA0006D49814211DD6D498142D8BF4FF0FF363A
:102BB0006DDD20462946FFF771FC042808BFFFF7AA
:102BC000B5FF20462946BDE8F88F6549654F25F0D9
:102BD0000045814233DD6449814219DD00263246D9
:102BE0004FF0804320462946FDF7BEFA80468A46CC
:102BF000012220462946FDF7EDFC00223B46FDF769
:102C000054FB42465346FDF7C8FB04460D463EE0E2
:102C100001260022BA463B4620462946FDF7A4FA83
:102C200080460F460022534620462946FDF73DFBCD
:102C300042463B46FDF7B1FB04460D4627E04B49B3
:102C400081421BDDDFF828A10226002253462046E0
:102C50002946FDF730FB00223B46FDF785FA80460A
:102C60000F460022534620462946FDF71EFB4246EA
:102C70003B46FDF792FB04460D4608E0032622463C
:102C80002B4600203B49FDF788FB04460D462246B3
:102C90002B4610461946FDF70EFB8B468246024630
:102CA0000B46FDF708FB07460246334888460B46AD
:102CB00006217844FFF764FE52465B46FDF7FBFAB7
:102CC00082462E488B463A46434605217844FFF714
:102CD00057FE3A464346FDF7EEFA02460B46002EF3
:102CE000504659460CDAFDF73FFA22462B46FDF7CF
:102CF000E2FA01B022462B46BDE8F04FFDF7D8BA04
:102D0000FDF732FA22462B46FDF7D5FA1C4A7A44E3
:102D100002EBC603D3E90023FDF7C7FA22462B4690
:102D2000FDF7C3FA174A7A4402EBC603D3E900233E
:102D3000FDF7BEFA009A002AB8BF81F00041BDE855
:102D4000F88F0000000010440000F07F182D44545C
:102D5000FB21F93FFB21F9BF0000DC3F0000203ED2
:102D60000000F33F0000F03F0000E63F008003401A
:102D70000000F83F0000F0BFFA080000B8080000AB
:102D8000560800001E08000000B5244B21F0004248
:102D900087B09A42DCBF0022134629DD204B9A42BD
:102DA00008D140B94FF00100FFF7D8FEFFF7B7FE9A
:102DB00007B000BD03DBFFF7AFFE07B000BD02AAFE
:102DC000FFF79CFB10F0030104BF0DF1080C9CE819
:102DD0000F000DD0012001290ED0022914D00DF1D1
:102DE000080C00909CE80F00FFF720FE07B000BD24
:102DF000FFF748FD07B000BD0DF1080C00909CE8FE
:102E00000F00FFF713FE05E00DF1080C9CE80F0022
:102E1000FFF738FD07B081F0004100BDFB21E93F1D
:102E20000000F07F06E0A82100BF0A1EA1F1010307
:102E300099B2FAD1021EA0F10100F4D1704700004E
:102E40008AB03F261F2703240425FDF711FEFFF754
:102E5000E7F9FEF72BFCFEF7AFFCFE480FC8FFF7C3
:102E60000BF8FD480FC8FFF707F8FEF7DEFC01205E
:102E7000FA4908700846012153223123CDE9003276
:102E8000CDE90210F4480FC8FFF78DF90820F34987
:102E900008700846012153222C23CDE90032CDE9E8
:102EA0000210ED480FC8FFF77EF90820EB490870C3
:102EB0000846012153222D23CDE90032CDE902102D
:102EC000E5480FC8FFF76FF98020E449087008460D
:102ED000012153222E23CDE90032CDE90210DE4834
:102EE0000FC8FFF760F90020DC490870084601218F
:102EF00053221E23CDE90032CDE90210D6480FC877
:102F0000FFF751F90520D5490870084601215322E1
:102F10002023CDE90032CDE90210CF480FC8FFF7DA
:102F200042F90020FEF7F4FEFEF726FDFDF78EFDC8
:102F300064300890B2E2FDF789FD089988427CD19F
:102F4000C748007800F0010040B1C548007820F083
:102F50000100C34908704FF000091CE0C048007828
:102F600000F0020050B1BE48007820F00200BC49D9
:102F700008704FF001094FF000080CE0B8480078E5
:102F800000F0040038B1B648007820F00400B449DD
:102F900008704FF00209B9F1000F04D10020FEF7CC
:102FA000B7FEFEF7E9FCFDF751FD643008904FF4E1
:102FB0000051AC48FDF73CFD08B9012000E00020BD
:102FC000A74909780843A64908704FF40071A6483C
:102FD000FDF72EFD08B9022000E00020A049097885
:102FE00008439F4908704FF480719F48FDF720FD0A
:102FF00008B9042000E0002099490978084398495D
:10300000087020219848FDF713FD08B9082000E05A
:10301000002093490978084391490870B9F1010FDC
:103020000BD1404608F101087F2801D34FF000087A
:103030008A4806215322322300E075E0CDE90032B0
:10304000CDE9021084480FC8FEF774FF01200090FC
:1030500003464246142101904046FEF763FD0020DE
:103060000221CDE900107D484078000200B27B4982
:103070000978084400EB80004FEA800B4FEAEB70C0
:103080000BEBD0504012C0F10A0342460A214046E1
:10309000FEF748FD012000901623424629210190A9
:1030A0004046FEF73FFD00200221CDE900106B48AD
:1030B000C078000200B269498978084400EB8000BA
:1030C0004FEA800B4FEAEB700BEBD0504012C0F18F
:1030D0001F0342461F214046FEF724FD01200090B9
:1030E0002B2342463E2101904046FEF71BFD002067
:1030F0000221CDE9001059484079000200B2574939
:103100000979084400EB80004FEA800B4FEAEB702E
:103110000BEBD0504012C0F13403424634214046FC
:10312000FEF700FDFEF728FCB9F1020F7ED100206A
:103130004E4908604E4908604E490860824631E0B9
:103140004648062153223223CDE90032CDE9021050
:1031500041480FC8FEF7EEFE40484078000200B23A
:103160003E49097808444149096808443F490860D4
:103170003A48C078000200B23849897808443C498E
:10318000096808443A49086034484079000200B2AE
:1031900032490979084437490968084435490860C3
:1031A0000AF1010ABAF1320FCAD33048006832215D
:1031B00090FBF1F02D4908602D480068322190FB0A
:1031C000F1F02B4908602B480068322190FBF1F0A8
:1031D00028490860FDF73AFC27490968411A274841
:1031E00000783230814221D3FDF730FC224908605B
:1031F0000020FEF78DFD002002230A221F210090EF
:103200003F20FEF7D7FB012002211F237F22CDE9BB
:10321000001019460020FEF785FC01200221402302
:103220003F22CDE900100021104600E036E1FEF714
:1032300079FC00202B46224607F11F01009006F181
:103240003F00FEF7B7FBFEF797FB0A480068E8BBB4
:10325000064815E000000020100000202104002096
:103260007004002000100140000C014028040020E0
:103270002C04002030040020500400207C04002096
:1032800000688749096890FBF1FB5846FDF7F4F8A0
:10329000CDE90001FFF768FCCDE90201FFF774FDFD
:1032A000CDE906017F480068FDF7E6F8CDE90401A5
:1032B000DDE90623FCF7FFFF7B4A03C27B48006879
:1032C0007749096890FBF1FB584600E018E0FDF7EC
:1032D000D3F8CDE90001FFF747FCCDE90201FFF784
:1032E00053FDCDE9060171480068FDF7C5F8CDE949
:1032F0000401DDE90623FCF7DEFF6D4A03C20BE0A3
:1033000068480068FDF7B8F8674A03C26748006874
:10331000FDF7B2F8664A03C2664A674B624903C9C1
:10332000FCF7C9FF0022654BCDE90201FDF735F836
:10333000604A634BCDE90401FCF7BDFFCDE906010E
:1033400060480CC80698FCF7B3FF5E4A03C2594AAE
:10335000594B574903C9FCF7AEFF0022574BCDE943
:103360000201FDF71AF8534A554BCDE90401FCF769
:10337000A2FFCDE9060154480CC80698FCF798FF57
:10338000514A03C20022514B4E4903C9FCF793FF37
:10339000484A4B4BCDE90001FCF78DFFCDE9040114
:1033A0003046FDF769F8CDE90201DDE90423FCF7B9
:1033B000DBFECDE90601FDF770F806460022434B1F
:1033C000414903C9FCF777FF3A4A3D4BCDE900017B
:1033D000FCF771FFCDE904013846FDF74DF8CDE962
:1033E0000201DDE90423FCF760FFCDE90601FDF7EA
:1033F00054F80746C4F14000401BB04211DAC4F152
:103400004000461B32482F490CC803C9FCF753FF44
:103410000022304BCDE90601FCF74DFF294A03C2DB
:1034200012E0A4F13F00B0420EDD064628482549CF
:103430000CC803C9FCF73FFF0022264BCDE906016B
:10344000FCF739FF1F4A03C2A4F11F00B8420FDD89
:1034500007461F481C490CC803C9FCF72CFF002273
:103460001C4BCDE90601FCF726FF174A03C215E005
:10347000C4F12000401BB84210DAC4F12000471B01
:10348000134811490CC803C9FCF715FF0022114B62
:10349000CDE90601FCF70FFF0B4A03C24BE5000024
:1034A0003004002028040020380400202C040020D0
:1034B000400400209A9999999999234000007040FE
:1034C0009999A93F580400206004002000407F40E3
:1034D000680400200000F0BF0FB585B00020019007
:1034E000029003900490BDF81C000190002002900F
:1034F0000120039001A90598FDF70AF909B000BD64
:103500000FB585B000200190029003900490BDF8A3
:103510001C0001900120029003900320049001A957
:103520000598FDF7F5F809B000BD000000000000A7
:103530000000010203040607080900000000010260
:1035400003040000000000004FBB610567ACDD3FD5
:10355000182D4454FB21E93F9BF681D20B73EF3FBA
:10356000182D4454FB21F93FE2652F227F2B7A3C32
:10357000075C143326A6813CBDCBF07A8807703CEB
:10358000075C143326A6913CC4EB98999999C9BF5E
:10359000711623FEC671BCBF6D9A74AFF2B0B3BF93
:1035A0009AFDDE522DDEADBF2F6C6A2C44B4A2BF53
:1035B0000D5555555555D53FFF8300922449C23FBF
:1035C0006E204CC5CD45B73F513DD0A0660DB13FF3
:1035D000EB0D76244B7BA93F11DA22E33AAD903F05
:1035E0004C5555555555A53F7751C1166CC156BF21
:1035F0009015CB19A001FA3EAD529C804F7E92BE31
:10360000C4B1B4BD9EEE213ED43888BEE9FAA8BD4F
:1036100000004054FB21F93F3163621A61B4D03D90
:103620000000601A61B4D03D7370032E8A19A33B69
:103630000000002E8A19A33BC14920259A837B39BB
:1036400000000000000000006E83F9A22915444E1E
:10365000D15727FCC0DD34F5999562DB4190433C9E
:10366000AB6351FE61C5BBDE3A6E24B7E0D24D427A
:10367000EA2E49061C92D1091CEB1DFE3EA729B17A
:10368000F53582E88444BB2E26709CE9417E5FB408
:1036900039D69139F43953838B5F849C3B28F9BD2B
:1036A000FF97F81F0F9805DE8B112FEF1F6D0A5A39
:1036B000CF7E366DB709CB27663F464F2DEA5F9E1A
:1036C000C7BA27757BF1E5EBF739073DEA92528AD5
:1036D000B15FFB6B085D8D1FA6F810111111813FC2
:1036E000D561C119A0012ABF7DFEB157E31DC73EB8
:1036F000EB9C2B8AE6E55ABE7CD5CF5A3AD9E53DFC
:10370000203700080000002088040000420600085E
:103710002838000888040020402400004C2B0008B2
:10372000113C0C01400412084304645910120212A7
:1037300001391016060AFE0AC612E012F062F84EAF
:10374000FE7DBBC7EF01053EC7BB7DFE300D080CFB
:10375000FEFE0C082060FEFE60208F7848FE82BAD4
:10376000BA0309135EAA0101017E6CFEFF0301CBBF
:10377000FFFF0F39BBECC0C0C0271918F92701396A
:103780002975990B6CFFFF0C01491A0C22E1E1E14C
:103790002701396C0F1F1801FB1F0F0F092E27017E
:1037A00036168C4222120C26FC020202FC3304FE66
:1037B00016205844FE402A10015912491E4912A9E8
:1037C0002A0123300A24A42E24E4242EA424C00A8F
:1037D000F84A4C48F8484C4AF82A01013907490D83
:1037E0005915991F9918091412712BC020A1AB20EB
:1037F000C00A11300A120A07027F02070A121E0BC2
:103800000A0A0A7F0402560B980A1F2040404050C3
:10381000205F800A7102401E2BCDCC0183EC3F3229
:083820001042015324F40000E2
:04000005080000ED02
:00000001FF
