:020000040800F2
:10000000C828002001010008E11700082D1600088B
:10001000DD170008990600088B2100080000000089
:100020000000000000000000000000006919000846
:100030009D0600080000000005190008C91F0008FF
:100040001B0100081B0100081B0100081B01000820
:100050001B0100081B0100081B0100081B01000810
:100060001B0100081B0100081B0100081B01000800
:100070001B0100081B0100081B0100081B010008F0
:100080001B0100081B0100081B0100081B010008E0
:100090001B0100081B0100081B0100081B010008D0
:1000A0001B0100081B0100081B0100081B010008C0
:1000B0001B0100081B010008912000081B0100081B
:1000C0001B0100081B0100081B0100081B010008A0
:1000D0001B0100081B0100081B0100081B01000890
:1000E000A10600081B0100081B010008DFF80CD066
:1000F00000F088FA00480047F12B0008C8280020CB
:100100000648804706480047FEE7FEE7FEE7FEE7B1
:10011000FEE7FEE7FEE7FEE7FEE7FEE73920000820
:10012000ED000008202A04DB203A21FA02F0002129
:10013000704721FA02F3D040C2F1200291400843F7
:1001400019467047D2B201E000F8012B491EFBD2DC
:1001500070470022F6E710B513460A4604461946D2
:10016000FFF7F0FF204610BD2DE9FE4F804681EAE3
:100170000300C00F0C46009021F0004123F0004521
:10018000B8EB0200A94105D24046214690461C46E4
:100190000B46024623F00040104347D0270DC7F31B
:1001A0000A00C3F30A510290401A019040286BDA0A
:1001B000C3F3130040F4801B0098924620B1002343
:1001C000D2EB030A63EB0B0B01985946C0F14002D6
:1001D000504600F081F906460D4650465946019AB0
:1001E00000F089F910EB08006141002487EA115200
:1001F00084EAE7731A4340D0009A62B3019A012A55
:100200004FEA075215DC001B61EB02014FF0004280
:1002100002EA0752CDE90042001C41F58011324646
:100220002B4600F089F903B0BDE8F08F4046214627
:10023000F9E7001B61EB0201001C41F58013001877
:100240005B412018A2F5001747EB030140EAD57087
:10025000B6196D4111E06D084FEA360645EAC075E2
:100260004FEA0752001B61EB0201001C41F58011AF
:1002700049084FEA30000019514132462B4603B07D
:10028000BDE8F04F00F049B900980122400000237A
:10029000D0EB020263EBE073009821464FEAE07472
:1002A000B8EB000061EB0401E9E783F000435BE792
:1002B00081F0004158E72DE9FE4F81EA030404F084
:1002C000004421F0004100944FF0000B23F0004364
:1002D00050EA01045ED052EA03045BD0C3F30A542F
:1002E000C1F30A552C44A4F2F3340194A0FB025448
:1002F000C1F3130141F48011C3F3130343F48013DA
:1003000001FB024400FB034E840A970A44EA81542D
:1003100047EA8357A4FB076802958D0A05FB07850A
:100320004FEA932C04FB0C542705029D4FEA065814
:1003300047EA1637B5EB08056EEB070C870E920EF1
:1003400047EA811742EA8312A7FB0201B6EB0B01D1
:1003500064EB00042B0D43EA0C335E1844EB1C5095
:10036000DA465146E7FB0201C5F313044FEA0B33AB
:1003700043EA14534FEA0432019C43EA0603A4F112
:100380000C040294009CCDE900B400F0D5F803B051
:10039000BDE8F08F00200146F9E72DE9F04D81EA34
:1003A000030404F0004B21F0004514464FF0000A0E
:1003B00023F0004150EA050220D054EA01021DD08A
:1003C000C5F30A570246C5F31303C1F31300C1F383
:1003D0000A5640F4801543F48013A7EB0608101B5F
:1003E000D64608F2FD3873EB050002D308F1010888
:1003F00001E092185B41B8F1000F03DA00200146DA
:10040000BDE8F08D00204FF48011064684460EE0D2
:10041000171B73EB050705D3121B63EB050306439C
:100420004CEA010C49084FEA300092185B4150EA4F
:100430000107EDD152EA030012D082EA040083EAF8
:100440000501084305D0101BAB4106D20122002351
:1004500006E000224FF0004302E06FF0010253106B
:100460001AEB06004CEB085110EB0A0041EB0B01B4
:10047000BDE8F04D00F051B80EB5C10F80EAE07054
:100480000844CA07002140F233438DE80E000A46B3
:100490000B4600F051F803B000BD70B5C1F30A522D
:1004A00001F000450024C1F3130140F2FF3341F491
:1004B00080119A4201DA002070BD40F233439A4223
:1004C000A2F2334203DC5242FFF72CFE00E09040E0
:1004D0002C43F1D0404270BD202A04DB203A00FAC0
:1004E00002F1002070479140C2F1200320FA03F38B
:1004F000194390407047202A06DBCB17203A41FA77
:1005000002F043EAE07306E041FA02F3D040C2F1A0
:100510002002914008431946704710B5141E73F12C
:10052000000408DA401C41F1000192185B411A43B3
:1005300001D120F0010010BD2DE9F04D92469B46FF
:1005400011B1B1FA81F202E0B0FA80F220329046A5
:10055000FFF7C2FF04460F4640EA0A0041EA0B01DA
:1005600053465A46084313D0114653EA010019D0A6
:10057000C8F140025046FFF7D5FD05460E465046ED
:1005800059464246FFF7A8FF084305D0012004E082
:1005900020463946BDE8F08D0020054346EAE07666
:1005A0002C4337430A986305E40AA0EB08000022B5
:1005B000FD0A44EA47540A3002D500200146E9E723
:1005C000010510196941DDE9084500196941BDE8D7
:1005D000F04DA2E770B521F0004303430CD0C1F306
:1005E0000A550024D5EB040564EB0403D617AD1AB5
:1005F000B34102DB0020014670BD201841EB0251DF
:1006000070BD0000064C074D06E0E06840F00103B5
:1006100094E8070098471034AC42F6D3FFF76AFD20
:1006200040320008603200080EB540F233410291BA
:100630000021CDE900110A460B46FFF77DFF03B00C
:1006400000BD70B58C1810F8015B15F0070301D1DF
:1006500010F8013B2A1106D110F8012B03E010F825
:10066000016B01F8016B5B1EF9D12B0705D4002348
:10067000521E0DD401F8013BFAE710F8013BCB1AEA
:10068000921C03E013F8015B01F8015B521EF9D5DF
:10069000A142D8D3002070BD00BFFEE77047000024
:1006A00010B54FF4805000F025F84FF4004000F0F2
:1006B00021F803480068401C0149086010BD000093
:1006C000480400207047000070B5044600F0BEF9F1
:1006D00006462546681C10B104480078054400BF52
:1006E00000F0B4F9801BA842FAD370BD7804002052
:1006F0007047000010B5044604480068204020B14F
:10070000024804602046FFF7F3FF10BD14040140C7
:100710002DE9F8470346002294466EE14FF00108A8
:1007200008FA02F4D1F8008008EA0400A0427DD162
:10073000DFF8DCA2D1F80480A8EB0A09D0453AD052
:1007400014DCB8F1030F50D009DCB8F1000F31D040
:10075000B8F1010F1CD0B8F1020F49D120E0B8F177
:10076000110F18D0B8F1120F42D11EE0B9F5881F51
:1007700025D006DCB9F5803F20D0B9F5801F37D1F0
:100780001AE0B9F5001F18D0B9F5041F30D117E0F1
:10079000D1F80CC02DE0D1F80C8008F1040C28E051
:1007A000D1F80C8008F1080C23E0D1F80C8008F196
:1007B0000C0C1EE000BF00BF00BF00BF00BF00BFA9
:1007C000D1F80880B8F1000F02D14FF0040C0BE013
:1007D000D1F80880B8F1010F03D14FF0080C1C616B
:1007E00002E04FF0080C5C6103E04FF0000C00E009
:1007F00000BF00BFFF2801D8984601E003F10408BC
:100800004646FF2802D84FEA820803E0A2F1080812
:100810004FEA88084746D6F800804FF00F0909FADA
:1008200007F928EA09080CFA07F900E088E048EA25
:100830000908C6F80080D1F8048008F08058B8F1A3
:10084000805F7DD100BFDFF8CC81D8F8188048F0F8
:100850000108DFF8C091C9F81880C846D8F8188098
:1008600008F00108CDF8008000BF00BF4FEAB9389A
:100870004FEA920958F829504FEA82784FEA1879DE
:100880004FF00F0808FA09F825EA0805DFF8888113
:10089000434502D14FF0000816E0DFF88081434560
:1008A00002D14FF001080FE0DFF87481434502D117
:1008B0004FF0020808E0DFF86C81434502D14FF0A9
:1008C000030801E04FF004084FEA82794FEA1979F2
:1008D00008FA09F848EA0505DFF84C814FEA920961
:1008E00048F82950D1F8048008F48038B8F5803FE2
:1008F0000AD1DFF83881D8F8008048EA0008DFF82C
:100900002C91C9F8008009E0DFF82081D8F8008038
:1009100028EA0008DFF81491C9F80080D1F80480B3
:1009200008F40038B8F5003F10D1DFF8008108F175
:100930000408D8F8008048EA0008DFF8F09000E0EA
:100940005AE009F10409C9F800800DE0DFF8DC8005
:1009500008F10408D8F8008028EA0008DFF8CC90F5
:1009600009F10409C9F80080D1F8048008F480185E
:10097000B8F5801F0ED1DFF8B48008F10808D8F868
:10098000008048EA0008DFF8A49009F10809C9F8D6
:1009900000800DE0DFF8948008F10808D8F80080A6
:1009A00028EA0008DFF8849009F10809C9F80080F6
:1009B000D1F8048008F40018B8F5001F0ED1DFF854
:1009C0006C8008F10C08D8F8008048EA0008DFF8CD
:1009D0005C9009F10C09C9F800800DE0DFF84C804B
:1009E00008F10C08D8F8008028EA0008DFF83C90ED
:1009F00009F10C09C9F80080521CD1F8008028FACE
:100A000002F8B8F1000F7FF489AEBDE8F887000066
:100A1000000011100010024000080140000C0140CD
:100A20000010014000140140080001400004014092
:100A3000024693680B400BB1012000E00020704794
:100A40000AB1016101E00B040361704701480068CD
:100A500070470000700400200348006803490978CB
:100A600008440149086070477004002078040020A1
:100A700010B50848006840F01000064908600320DF
:100A800000F0A8F8002000F007F800F02BF8002094
:100A900010BD00000020024070B504460E480078EA
:100AA0004FF47A71B1FBF0F00C490968B1FBF0F535
:100AB000284600F0E5FB08B1012070BD102C07D2DC
:100AC00000222146501E00F047F80548046001E06E
:100AD0000120F2E70020F0E7780400207C040020E9
:100AE0007404002008B500BF1148806940F001007F
:100AF0000F4988610846806900F00100009000BF3E
:100B000000BF00BF0846C06940F08050C861084679
:100B1000C06900F08050009000BF00BF00BF0549D1
:100B2000486820F0E06040F00070486000BF08BDF9
:100B3000001002400000014001460846002809DB81
:100B400000F01F0301229A4043099B0003F1E023B8
:100B5000C3F8002100BF70472DE9F05F80460D46C5
:100B60001646002701F086FB074639462A463346DB
:100B700001F00700C0F1070ABAF1040F02D94FF0E3
:100B8000040A01E0C0F1070AD14600F1040ABAF1F3
:100B9000070F02D24FF0000A01E0A0F1030AD44689
:100BA0004FF0010A0AFA09FAAAF1010A0AEA020A4E
:100BB0000AFA0CFA4FF0010B0BFA0CFBABF1010B2C
:100BC0000BEA030B4AEA0B042146404601F05AFBAC
:100BD000BDE8F09F00BF00F00702064B19684FF612
:100BE000FF031940044B0B4343EA0221014B1960F8
:100BF00000BF70470CED00E00000FA0570B5044638
:100C00000D460CB9012070BD5A48006800F007007D
:100C1000A8420ED25748006820F0070028435549E3
:100C200008600846006800F00700A84201D00120D3
:100C3000E9E7207800F0020002281DD1207800F0BA
:100C40000400042805D14C48406840F4E0604A495B
:100C50004860207800F00800082805D14648406820
:100C600040F46050444948604348406820F0F00038
:100C7000A168084340494860207800F0010078B33B
:100C80006068012806D13C48006800F4003090B943
:100C90000120B8E76068022806D13748006800F0F4
:100CA000007040B90120AEE73348006800F0020050
:100CB00008B90120A7E73048406820F003006168C8
:100CC00008432D494860FFF7C1FE064609E0FFF7DB
:100CD000BDFE801B41F28831884202D9032092E791
:100CE00007E02548406800F00C006168B0EB810F18
:100CF000EDD12048006800F00700A8420ED91D4839
:100D0000006820F0070028431A4908600846006878
:100D100000F00700A84201D0012074E7207800F01D
:100D20000400042807D11448406820F4E060E1681A
:100D3000084311494860207800F00800082808D1CD
:100D40000D48406820F46050216940EAC1000A491A
:100D5000486000F019F808494968C1F30311074ACF
:100D6000515CC8400649086006480068FFF794FED9
:100D7000002048E700200240001002406A300008CE
:100D80007C04002074040020F0B585B00FF26C0CD8
:100D90009CE8E01001A8A0E8E0101CA52D680095D3
:100DA00000210022002300240020194D696801F071
:100DB0000C05F5B1042D02D0082D19D101E015481C
:100DC00019E001ADC1F38346AC5D01F4803555B146
:100DD0000F4D6D68C5F340451DF805200D4D654369
:100DE000B5FBF2F302E00C4D04FB05F3184602E0FC
:100DF00000BF084800BF00BF05B0F0BD02030405F6
:100E0000060708090A0B0C0D0E0F10100102000056
:100E10000010024000127A0000093D00F8B50446B7
:100E20000CB90120F8BD207800F00100002878D02E
:100E3000F848406800F00C0004280CD0F5484068E1
:100E400000F00C00082811D1F248406800F480300E
:100E5000B0F5803F0AD1EF48006800F40030002868
:100E60005FD0606800285CD10120DBE700BF6068CC
:100E7000B0F5803F06D1E748006840F48030E5498E
:100E8000086028E0606858B9E248006820F48030C3
:100E9000E04908600846006820F4802008601AE0F5
:100EA0006068B0F5A02F0BD1DA48006840F48020CC
:100EB000D84908600846006840F4803008600AE0BD
:100EC000D448006820F48030D249086008460068A1
:100ED00020F48020086000BF606888B1FFF7B6FD8D
:100EE000054606E0FFF7B2FD401B642801D9032048
:100EF00098E7C848006800F400300028F2D010E0FD
:100F0000FFF7A4FD054606E0FFF7A0FD401B64289F
:100F100001D9032086E7BF48006800F400300028AC
:100F2000F2D1207800F00200022857D1B948406879
:100F300000F00C0050B1B748406800F00C000828E1
:100F400018D1B448406800F4803098B9B1480068BE
:100F500000F0020020B12069012801D0012061E7E2
:100F6000AC48006820F0F800616940EAC100A94976
:100F7000086033E02069E8B10120A7490860FFF765
:100F800065FD054606E0FFF761FD401B022801D91B
:100F9000032047E79F48006800F002000028F2D0D5
:100FA0009C48006820F0F800616940EAC100994956
:100FB000086013E0002098490860FFF747FD0546E8
:100FC00006E0FFF743FD401B022801D9032029E773
:100FD0009048006800F002000028F2D1207800F06C
:100FE000080008282DD1A069B8B101208B490860FC
:100FF000FFF72CFD054606E0FFF728FD401B022801
:1010000001D903200EE78348406A00F0020000285F
:10101000F2D0012000F078FC13E000207F49086046
:10102000FFF714FD054606E0FFF710FD401B022800
:1010300001D90320F6E67748406A00F00200002854
:10104000F2D1207800F00400042873D10027714801
:10105000C06900F0805070B900BF6E48C06940F0B0
:1010600080506C49C8610846C06900F0805000900B
:1010700000BF00BF01276A48006800F48070B0B963
:101080006748006840F4807065490860FFF7DEFC3F
:10109000054606E0FFF7DAFC401B642801D903206F
:1010A000C0E65F48006800F480700028F2D000BFFE
:1010B000E068012806D15748006A40F00100554910
:1010C000086227E0E06858B95248006A20F0010041
:1010D000504908620846006A20F00400086219E0DE
:1010E000E06805280BD14B48006A40F004004949EC
:1010F00008620846006A40F0010008620AE04548BC
:10110000006A20F00100434908620846006A20F0A6
:101110000400086200BFE068A0B1FFF797FC054635
:1011200009E0FFF793FC401B41F28831884202D965
:10113000032077E622E03748006A00F0020000282A
:10114000EFD012E0FFF782FC054608E0FFF77EFCD7
:10115000401B41F28831884201D9032062E62D48C4
:10116000006A00F002000028F0D1012F05D12948C3
:10117000C06920F080502749C86100BFE069C8B34A
:101180002448406800F00C00082860D0E06902287C
:1011900048D1002020490866FFF758FC054606E0C4
:1011A000FFF754FC401B022801D903203AE61948F6
:1011B000006800F000700028F2D1206AB0F5803F8E
:1011C00007D11448406820F40030A1680843114951
:1011D0004860D4E9080108430E49496821F47411B4
:1011E00008430C49486001200B490866FFF72EFCB4
:1011F000054607E03DE0FFF729FC401B022801D926
:1012000003200FE60348006800F000700028F2D0C9
:101210002FE00000001002400000424280044242E1
:1012200000700040002014490866FFF70FFC0546D7
:1012300006E0FFF70BFC401B022801D90320F1E573
:101240000E48006800F000700028F2D111E0E0695B
:10125000012800D1E6E50948466806F48031206A95
:10126000814204D106F47011606A814201D00120EC
:10127000D8E50020D6E50000000042420010024000
:1012800070B504462546681EB0F1807F01D3012069
:101290000FE0681E4FF0E02148610F214FF0FF3052
:1012A00000F0F0FF00204FF0E02188610720086186
:1012B000002070BD7047704710B5024600BF92F81D
:1012C0003C00012801D1022010BD012082F83C0021
:1012D00000BF022082F83D001068436810688468EF
:1012E00023F070030868034324F080044868044333
:1012F0001068436010688460012082F83D0000BFE0
:10130000002082F83C0000BF00BFDDE710B50446B6
:101310000CB9012010BD94F83D0028B9002084F8D4
:101320003C00204600F00CF8022084F83D00211D0E
:10133000206800F0B5FE012084F83D000020E9E7B8
:1013400038B504460D492068884215D100BF0C48C5
:10135000C06940F004000A49C8610846C06900F04D
:101360000400009000BF00BF002211461E20FFF7BE
:10137000F3FB1E20FFF7E0FB38BD00000008004033
:10138000001002402DE9F04104460D4600BF94F8DC
:101390003C00012802D10220BDE8F081012084F840
:1013A0003C0000BF022084F83D002068866826F0DB
:1013B000770626F47F46206886602868502833D058
:1013C0000CDC202850D004DC00284BD0102851D150
:1013D00049E0302849D040284CD139E060282DD050
:1013E000702807D0B0F5805F03D0B0F5005F41D121
:1013F0000DE040E0D5E902136A68206800F08AFE3B
:101400002068866846F077062068866033E0D5E974
:1014100002136A68206800F07DFE2068806840F44E
:1014200080402168886026E0EA686968206800F0EA
:1014300085FE5021206800F078FE1CE0EA686968AB
:10144000206800F08EFE6021206800F06EFE12E041
:10145000EA686968206800F071FE4021206800F0A9
:1014600064FE08E000BF00BF00BF2968206800F0EC
:101470005CFE00E000BF00BF012084F83D0000BF1B
:10148000002084F83C0000BF00BF85E7704710B51E
:10149000044620680069C0F34000D8B12068C068E5
:1014A000C0F34000B0B16FF0020021680861012074
:1014B00020772068806900F0030018B12046FFF70C
:1014C000E5FF05E0204600F0ADF8204600F0ABF85F
:1014D0000020207720680069C0F38000D8B1206820
:1014E000C068C0F38000B0B16FF0040021680861EB
:1014F000022020772068806900F4407018B12046EF
:10150000FFF7C4FF05E0204600F08CF8204600F00D
:101510008AF80020207720680069C0F3C000D8B1A5
:101520002068C068C0F3C000B0B16FF00800216847
:101530000861042020772068C06900F0030018B11A
:101540002046FFF7A3FF05E0204600F06BF8204699
:1015500000F069F80020207720680069C0F30010CF
:10156000D8B12068C068C0F30010B0B16FF01000AF
:1015700021680861082020772068C06900F4407065
:1015800018B12046FFF782FF05E0204600F04AF838
:10159000204600F048F8002020772068006900F01D
:1015A000010058B12068C06800F0010030B16FF050
:1015B000010021680861204600F036F820680069C3
:1015C000C0F3C01058B12068C068C0F3C01030B17B
:1015D0006FF08000216808612046FFF76BFE2068ED
:1015E0000069C0F3801058B12068C068C0F3801053
:1015F00030B16FF0400021680861204600F015F816
:1016000020680069C0F3401058B12068C068C0F37A
:10161000401030B16FF02000216808612046FFF7CC
:101620004AFE10BD704770477047704700BFFEE725
:1016300010B5012291020A48FFF702FA0122D102F5
:101640000748FFF7FDF900224FF400610448FFF757
:10165000F7F900224FF480610148FFF7F1F910BD5E
:10166000000C014010B5012291020748FFF7E8F98C
:1016700000224FF400610448FFF7E2F90122D10291
:101680000148FFF7DDF910BD000C014010B5012243
:1016900091020548FFF7D4F900224FF48061024817
:1016A000FFF7CEF910BD0000000C014000B585B079
:1016B0000020019002900390049000BF29488069A7
:1016C00040F02000274988610846806900F020002A
:1016D000009000BF00BF00BF0846806940F00800CE
:1016E00088610846806900F00800009000BF00BFD4
:1016F00000BF0846806940F00400886108468069A0
:1017000000F00400009000BF00BF012242F6034138
:101710001548FFF795F9002204211348FFF790F9C7
:1017200042F60740019001200290039003200490AC
:1017300001A90D48FEF7ECFF4FF4104001900B4853
:1017400002900020039001A90748FEF7E1FF002264
:1017500011462820FFF700FA2820FFF7EDF905B021
:1017600000BD000000100240000C014000001110FC
:1017700000B587B00020039004900590069001907A
:10178000029014481449086047204860002112481C
:10179000816040F2E731C160002101618161FFF7A2
:1017A000B5FD08B1FEF78EFF4FF48050039003A9FA
:1017B0000948FFF7E7FD08B1FEF784FF002001901C
:1017C000029001A90448FFF777FD08B1FEF77AFF00
:1017D00007B000BD000800408404002000BFFEE701
:1017E000704710B56420FEF76FFF0021AE2000F0B7
:1017F0007DF80021022000F079F80021102000F08F
:1018000075F80021402000F071F80021B02000F0B0
:101810006DF80021812000F069F80021FF2000F020
:1018200065F80021A12000F061F80021A62000F059
:101830005DF80021A82000F059F800213F2000F0B9
:1018400055F80021C82000F051F80021D32000F005
:101850004DF80021084600F049F80021D52000F09D
:1018600045F80021802000F041F80021D82000F048
:101870003DF80021052000F039F80021D92000F0C2
:1018800035F80021F12000F031F80021DA2000F0D5
:101890002DF80021122000F029F80021DB2000F0B3
:1018A00025F80021302000F021F800218D2000F0E3
:1018B0001DF80021142000F019F80021AF2000F0DD
:1018C00015F810BD70B504460D4605F1B0000021B5
:1018D00000F00CF8102141EA1410002100F006F885
:1018E00004F00F00002100F001F870BD70B504464F
:1018F0000D461DB1E0B200F093FC02E0E0B200F052
:1019000079FC70BD7047000008B508490968C9082E
:101910004FF47A72B1FBF2F14143009100BF00BF76
:1019200000994A1E00920029F9D108BD7C040020CC
:1019300070B5002412E021460020FFF7C3FF002508
:1019400008E0084901EB8511085D0121FFF7CEFF92
:10195000681CC5B2802DF4DB601CC4B2082CEADB25
:1019600070BD0000C4040020704700002DE9FF5F37
:1019700006460F4690469A46DDF838B000244546A4
:101980004046FEF779FD0022494BCDE90001FEF704
:101990008FFCCDE90201FEF780FD814682E0B9F1BE
:1019A000000F40DB601B022101FB009000F10509E4
:1019B000641C6D1EE919A0195B46524600F07AF8C6
:1019C000E919624290195B46524600F073F8E1193A
:1019D000A8195B46524600F06DF8E1196A42901969
:1019E0005B46524600F066F86A42D119A0195B4680
:1019F000524600F05FF86A42D119624290195B4684
:101A0000524600F057F86242D119A8195B46524677
:101A100000F050F86242D1196A4290195B46524672
:101A200000F048F83EE0022000FB049000F10309BA
:101A3000641C00BFE919A0195B46524600F03AF851
:101A4000E919624290195B46524600F033F8E119F9
:101A5000A8195B46524600F02DF8E1196A42901928
:101A60005B46524600F026F86A42D119A0195B463F
:101A7000524600F01FF86A42D119624290195B4643
:101A8000524600F017F86242D119A8195B46524637
:101A900000F010F86242D1196A4290195B46524632
:101AA00000F008F8AC42FFF67AAFBDE8FF9F0000F7
:101AB0000000F43F2DE9F04304460D4616469946D2
:101AC0000EB9BDE8F083802C00DB8024402D00DBC4
:101AD0003F25002714E04FF0000807E005EB080160
:101AE000E0194A4600F018F808F10108A819402842
:101AF00001D2304601E0C5F140004045EED27F1CE6
:101B0000A019802801D2304601E0C4F18000B8421B
:101B1000E1D200BFD5E70000F0B503461446002B24
:101B200005DB002903DB7F2B01DC3F2900DDF0BD55
:101B300014B1012C38D11BE0CD1701EB5575ED1018
:101B40001A4E06EB8316755D0A46CE1701EB5676E4
:101B5000F610A1EBC6070126BE4035430846CE1756
:101B600001EB5676F610114F07EB8317BD55DEE7F4
:101B7000CD1701EB5575ED100C4E06EB8316755D18
:101B80000A46CE1701EB5676F610A1EBC6070126E2
:101B9000BE40B5430846CE1701EB5676F610034F0C
:101BA00007EB8317BD55C2E700BFC0E7C4040020A0
:101BB00010B5024600200EE0002109E00AB900231A
:101BC00001E04FF0FF33054C04EB80146354491CD3
:101BD0000829F3D3401C8028EED310BDC404002094
:101BE0001FB5BDF80A1000220198FEF729FF9DE8F5
:101BF0000F0001F025FABDF8081000220098FEF74A
:101C00001FFF002000F0E6FFBDF80A100122019836
:101C1000FEF716FF002000F0DDFFBDF80A100022DD
:101C20000198FEF70DFF1FBD0FB585B00020019094
:101C300002900390049000BF1648806940F00800AD
:101C4000144988610846806900F00800009000BFD0
:101C500000BF012240F603410F48FEF7F1FE40F6B7
:101C6000034001900120029003900320049001A9F9
:101C70000948FEF74DFDBDF81C1001220598FEF73E
:101C8000DFFEBDF81E1001220698FEF7D9FE09B04E
:101C900000BD000000100240000801401FB5BDF863
:101CA0000A1000220198FEF7CBFE9DE80F0001F01C
:101CB000C7F9BDF8081001220098FEF7C1FE002008
:101CC00000F088FFBDF80A1001220198FEF7B8FE67
:101CD000002000F07FFFBDF80A1000220198FEF7F7
:101CE000AFFE1FBD2DE9FF4182B0DDE90C85DDE9C6
:101CF0000E6702A80FC800F0AEF86806000E00904C
:101D000002A80FC800F074F802A80FC800F0EBF8A2
:101D100008F0FF00009002A80FC800F069F802A8C0
:101D20000FC800F0E0F802A80FC800F094F80120F6
:101D300000EB4500C0B2009002A80FC800F058F8B0
:101D400002A80FC800F0CFF8002412E0701EA042D5
:101D500007D00120009002A80FC800F013F83855F2
:101D600006E00020009002A80FC800F00BF83855DC
:101D7000641CB442EADB02A80FC800F090F806B079
:101D8000BDE8F0817FB5089E00249DE80F0001F0BA
:101D900043F900251DE0BDF80A1000220198FEF766
:101DA0004FFE002000F016FFBDF80A100122019836
:101DB000FEF746FE6006040EBDF808100098FEF718
:101DC00037FE08B1601CC4B2002000F003FF681C9D
:101DD000C5B2082DDFDB26B99DE80F00FFF75EFFD7
:101DE00003E09DE80F00FFF7FBFE204604B070BD46
:101DF0007FB5089C9DE80F0001F022F9BDF80A109C
:101E000000220198FEF71CFE002000F0E3FE0025F2
:101E10001EE0E209BDF808100098FEF711FE60060A
:101E2000040E002000F0D6FEBDF80A100122019831
:101E3000FEF706FE002000F0CDFEBDF80A100022DD
:101E40000198FEF7FDFD002000F0C4FE681CC5B23D
:101E5000082DDEDB7FBD1FB59DE80F0001F0F0F817
:101E6000BDF8081001220098FEF7EAFDBDF80A103F
:101E700001220198FEF7E4FD002000F0ABFEBDF862
:101E8000081000220098FEF7DBFD002000F0A2FE03
:101E9000BDF80A1000220198FEF7D2FD1FBD1FB544
:101EA0009DE80F0001F0CCF8BDF80A10002201985F
:101EB000FEF7C6FDBDF8081000220098FEF7C0FD31
:101EC000002000F087FEBDF80A1001220198FEF7FD
:101ED000B7FDBDF8081001220098FEF7B1FD002003
:101EE00000F078FE1FBD1FB50024BDF808100122C8
:101EF0000098FEF7A5FD9DE80F0001F08DF8002089
:101F000000F068FEBDF80A1001220198FEF798FD66
:101F1000002000F05FFE0FE0601CC4B2FA2C06DD6A
:101F20009DE80F00FFF7BBFF012004B010BDBDF816
:101F300008100098FEF77CFDBDF808100098FEF729
:101F400077FD0028E8D1BDF80A1000220198FEF7BD
:101F500077FD0020E9E72DE9FF4182B00CAD95E85F
:101F6000E00102A80FC8FFF776FF7006000E009090
:101F700002A80FC8FFF73CFF02A80FC8FFF7B3FF86
:101F8000E8B2009002A80FC8FFF732FF02A80FC8FE
:101F9000FFF7A9FF00240BE018F80400009002A846
:101FA0000FC8FFF725FF02A80FC8FFF79CFF641CAE
:101FB000BC42F1DB02A80FC8FFF771FF022000F05E
:101FC00009FE06B0BDE8F08110B5FEF745FD10BD75
:101FD00000B58FB0282105A8FEF7BBF8142168468C
:101FE000FEF7B7F801200590000406900020079046
:101FF0000120099002200C90C1030D914FF4E011D3
:102000000E9105A8FEF70AFF08B1FEF75BFB0F2053
:10201000009002200190002002904FF48060039015
:102020000020049002216846FEF7E8FD08B1FEF7A3
:1020300049FB0FB000BD00001148006840F00100EE
:102040000F490860084640680E4908400C4948603E
:10205000084600680C4908400949086008460068BD
:1020600020F4802008600846406820F4FE004860A4
:102070004FF41F008860C8030449086070470000DF
:10208000001002400000FFF8FFFFF6FE08ED00E040
:1020900010B50248FFF7FBF910BD000084040020D2
:1020A00010B50268184B984208D0B0F1804F05D0A7
:1020B000164B984202D0164B984203D122F0700280
:1020C0004B681A43104B984208D0B0F1804F05D0AE
:1020D0000E4B984202D00E4B984203D122F440722C
:1020E000CB681A4322F080034C6943EA0402026081
:1020F0008B68C3620B688362034B984201D10B6902
:1021000003630123436110BD002C01400004004023
:102110000008004030B50C46816821F47F4142EA56
:10212000032525432943816030BD0A46816821F09B
:10213000700142F0070319438160704730B50B46C8
:102140001446026A056A25F001050562816921F0DD
:10215000F00141EA041122F00A021A43816102628D
:1021600030BD30B50B461446056A25F010050562F2
:102170008169026A21F4704141EA043122F0A0022F
:1021800042EA03128161026230BD00BFFEE7000037
:102190002DE9F04105462C4600224FF48061144899
:1021A000FEF74EFC00261FE0274607F08007802F31
:1021B00005D10122D1020E48FEF742FC05E00022C3
:1021C0004FF400610A48FEF73BFC6006040E012252
:1021D00091020748FEF734FC00224FF48061044866
:1021E000FEF72EFC701CC6B2082EDDDBBDE8F081C8
:1021F000000C014010B50446FFF71AFA7820FFF7EB
:10220000C7FFFFF743FA0020FFF7C2FFFFF73EFAD0
:102210002046FFF7BDFFFFF739FAFFF723FA10BD9D
:1022200010B50446FFF704FA7820FFF7B1FFFFF777
:102230002DFA4020FFF7ACFFFFF728FA2046FFF702
:10224000A7FFFFF723FAFFF70DFA10BD490050EA88
:10225000C12018BF04204A0D18BF40F0010040F211
:10226000FF72B2EB515F08BF40F00200012808BFC7
:102270000520704702480068C0F302207047000044
:102280000CED00E010B5002804DB0A07130E054A28
:10229000135406E00A07140E034A00F00F031B1F35
:1022A000D45410BD00E400E018ED00E02DE9F74F34
:1022B000144694B00021C4E902111599079121F048
:1022C0000045C9498D4206DC1599C4E9000117B0E3
:1022D0000020BDE8F08FC549DFF814A3A9423CDD1A
:1022E0000799C44E0029C44FC44A1599534619DDB5
:1022F000FDF7DBFF554506D0C14AC24BFDF7D5FFC0
:10230000C4E900010AE04FF0D352BE4BFDF7CDFF08
:1023100032463B46FDF7C9FFC4E9000117B0012072
:10232000BDE8F08FFDF720FF554506D0B44AB54B08
:10233000FDF71AFFC4E900010AE04FF0D352B14B98
:10234000FDF712FF32463B46FDF70EFFC4E90001E0
:1023500017B04FF0FF30BDE8F08FAB49A942159997
:1023600078DB21F0004183468846A84AA84BFDF758
:10237000A2FF0022A74BFDF7F7FEFEF78EF80990AB
:10238000FEF77AF806460F469C4A5346FDF793FF40
:1023900043465A46FDF78CFF80468A46984A994B39
:1023A00030463946FDF787FF2A0D01250B9242463C
:1023B0005346FDF77DFF032DC4E9000139D00B988A
:1023C000C1F30A51401A05EB45111139814230DA47
:1023D0009148C346784400EB0510CDF80CA00C9052
:1023E000D0E9002330463946FDF765FF02460B462B
:1023F0000491069058460399FDF757FF80468A4698
:1024000002460B4658460399FDF74FFF049B069A78
:10241000FDF74BFF83460C9803913946D0E9022320
:102420003046FDF748FF5A46039BFDF73EFF6D1C03
:10243000BDE707980028A2BF099817B0BDE8F08F44
:10244000616881F000416160099817B04042BDE8C1
:10245000F08FFFE784461598C1F31301C0F30A50CB
:10246000A0F2F5304FEA601800F01F06C6F1200018
:10247000139000200690079041F4801E05206D46C1
:1024800076B1664A08EB00017A4452F8213002EB3B
:102490008101B3404A68139922FA01F1194305E01A
:1024A0005F4908EB0002794451F82210A1FB0E2786
:1024B000A1FB0C131A449A4234BF0123002303EBFF
:1024C000070A05EB8003D3E901B70F448F4234BFFD
:1024D0000121002193448B4411B1934502D903E0BB
:1024E000934501D2012100E00021C3E901B7514425
:1024F00045F82010011EA0F10100C1DC0298059FE3
:1025000000F10050800F12900298DDE90356800020
:10251000FDF7B2FF834628460D91FEF785F86FF070
:102520001D02FEF757F8CDE90E013046FEF77CF8A4
:102530006FF03D02FEF74EF880468A463846FEF7B9
:1025400073F86FF05D02FEF745F8074642465346C2
:102550001191FDF709FEDDE90E23FDF705FE5A4650
:102560000D9BFDF701FE00250E465A4628460D9BA1
:10257000FDF79BFEDDE90E23FDF797FE424653462D
:10258000FDF793FE3A46119BFDF792FEDFF898A007
:10259000244A5346FDF78FFE07468846234A244BBC
:1025A00031462846FDF787FE3A464346FDF7DCFDF7
:1025B000074688464FF0A842534631462846FDF765
:1025C0007AFE3A464346FDF7CFFD159A12F0004FCA
:1025D00004D0129A81F0004152421292C4E90001E3
:1025E000129817B0BDE8F08FFB21E93F7CD902407B
:1025F000FB21F93F7370032E8A19A33B000040545E
:102600003163621A61B4D03DFB21394183C8C96D81
:10261000305FE43F0000E03F780D0000F40C000064
:10262000D60C0000182D4454FB21F93D3326A61189
:10263000460B113C2DE9FF4D21F0004807460C46A2
:10264000B8F1795F08DAFDF728FF002801BF002004
:10265000324904B0BDE8F08D3A462346104619468B
:10266000FDF729FE054602462D480E460B4606217B
:10267000784400F05DF82A463346FDF71CFEDDE99C
:10268000022382468B4638462146FDF714FE044657
:102690000F4652465B4628463146FDF70CFE224661
:1026A0003B46FDF702FE07468A464FF0FF322846BA
:1026B0003146FDF78FFF1B4A90450ADA3A465346EA
:1026C000FDF7F3FD04B00022BDE8F04D134BFDF71C
:1026D000EFBD154A4245A8BFA8F500154FF000040C
:1026E000B8BF124D22462B46FDF7DFFD0646884651
:1026F00022462B4600200949FDF7D7FD04460D462A
:102700003A46534630464146FDF7CFFD04B02246D7
:102710002B46BDE8F04DFDF7CBBD00000000F03FBB
:10272000AC0A00003333D33F0000E93F0000D23F42
:102730002DE9F0414F1E00EBC7010446D1E900012D
:1027400015461E4637F006020DD02A463346FDF7E1
:10275000B2FD7F1E04EBC703D3E90023FDF704FDA0
:1027600037F00602F1D1022F25D0042F13D0062F07
:1027700018BFBDE8F0812A463346FDF79CFDD4E939
:102780000A23FDF7F1FC2A463346FDF794FDD4E910
:102790000823FDF7E9FC2A463346FDF78CFDD4E912
:1027A0000623FDF7E1FC2A463346FDF784FDD4E914
:1027B0000423FDF7D9FC2A463346FDF77CFDD4E916
:1027C0000223FDF7D1FC2A463346FDF774FDD4E918
:1027D0000023BDE8F041FDF7C7BC00002DE9FF4D27
:1027E000054621F0004084B00C46B0F1795F0BDA69
:1027F0002846FFF72BFD042808BF00F06FF8284695
:1028000008B02146BDE8F08D2A460B461046FDF77C
:1028100052FD06460F462A462346FDF74CFD8046EC
:1028200026488A4632463B4605217844FFF780FF1A
:1028300083461098029160B3214A224B404651468C
:10284000FDF739FDCDE900015A4640465146029B4D
:10285000FDF731FD82468846DDE906014FF0FF3283
:10286000FDF7B8FE52464346FDF71FFD32463B4694
:10287000FDF721FDDDE90623FDF717FDDDE9002366
:10288000FDF713FD08B02A462346BDE8F04DFDF7DD
:102890000FBD0B465A4630463946FDF70CFD084A37
:1028A000084BFDF761FC42465346FDF704FD08B0B6
:1028B0002A462346BDE8F04DFDF756BCEA09000064
:1028C000495555555555C5BF0122FDF783BE002218
:1028D000134610461146FDF760BD0000024A002075
:1028E0001107FDF777BE000001FDFFFF02E008C8F9
:1028F000121F08C1002AFAD170477047002001E07A
:1029000001C1121F002AFBD1704700000149086075
:1029100070470000800400202DE9F84F04460D4662
:1029200021F0004000917349814211DC72498842D4
:1029300001DC06D12CB120462946BDE8F84FFFF74F
:10294000C3BF6E48002DCCBF6D496E49BDE8F88FFE
:102950006D49814211DD6D498142D8BF4FF0FF368C
:102960006DDD20462946FFF771FC042808BFFFF7FC
:10297000B5FF20462946BDE8F88F6549654F25F02B
:102980000045814233DD6449814219DD002632462B
:102990004FF0804320462946FDF7E6FB80468A46F5
:1029A000012220462946FDF715FE00223B46FDF791
:1029B0007CFC42465346FDF7F0FC04460D463EE0E3
:1029C00001260022BA463B4620462946FDF7CCFBAD
:1029D00080460F460022534620462946FDF765FCF7
:1029E00042463B46FDF7D9FC04460D4627E04B49DD
:1029F00081421BDDDFF828A1022600225346204633
:102A00002946FDF758FC00223B46FDF7ADFB80460A
:102A10000F460022534620462946FDF746FC424613
:102A20003B46FDF7BAFC04460D4608E00326224665
:102A30002B4600203B49FDF7B0FC04460D462246DC
:102A40002B4610461946FDF736FC8B468246024659
:102A50000B46FDF730FC07460246334888460B46D6
:102A600006217844FFF764FE52465B46FDF723FCDF
:102A700082462E488B463A46434605217844FFF766
:102A800057FE3A464346FDF716FC02460B46002E1B
:102A9000504659460CDAFDF767FB22462B46FDF7F8
:102AA0000AFC01B022462B46BDE8F04FFDF700BC02
:102AB000FDF75AFB22462B46FDF7FDFB1C4A7A44E4
:102AC00002EBC603D3E90023FDF7EFFB22462B46BA
:102AD000FDF7EBFB174A7A4402EBC603D3E9002368
:102AE000FDF7E6FB009A002AB8BF81F00041BDE87F
:102AF000F88F0000000010440000F07F182D4454AF
:102B0000FB21F93FFB21F9BF0000DC3F0000203E24
:102B10000000F33F0000F03F0000E63F008003406C
:102B20000000F83F0000F0BF8A06000048060000E1
:102B3000E6050000AE05000000B5244B21F0004280
:102B400087B09A42DCBF0022134629DD204B9A420F
:102B500008D140B94FF00100FFF7D8FEFFF7B7FEEC
:102B600007B000BD03DBFFF7AFFE07B000BD02AA50
:102B7000FFF79CFB10F0030104BF0DF1080C9CE86B
:102B80000F000DD0012001290ED0022914D00DF123
:102B9000080C00909CE80F00FFF720FE07B000BD76
:102BA000FFF748FD07B000BD0DF1080C00909CE850
:102BB0000F00FFF713FE05E00DF1080C9CE80F0075
:102BC000FFF738FD07B081F0004100BDFB21E93F70
:102BD0000000F07F06E0A82100BF0A1EA1F101035A
:102BE00099B2FAD1021EA0F10100F4D170470000A1
:102BF00086B03F264FF01F0903240425FDF738FF58
:102C0000FFF7E6F9FEF752FDFEF7B2FDEF480FC8F9
:102C1000FFF70AF8EE480FC8FFF706F8FEF7E1FDE8
:102C20000B20EC4908700846012153223123CDE9DD
:102C30000032CDE90210E6480FC8FFF78CF90820F2
:102C4000E44908700846012153222C23CDE90032C3
:102C5000CDE90210DE480FC8FFF77DF90820DD49F5
:102C600008700846012153222D23CDE90032CDE919
:102C70000210D7480FC8FFF76EF98020D5490870B9
:102C80000846012153222E23CDE90032CDE902105E
:102C9000CF480FC8FFF75FF90020CE4908700846FB
:102CA000012153221E23CDE90032CDE90210C8488C
:102CB0000FC8FFF750F90520C649087008460121E2
:102CC00053222023CDE90032CDE90210C0480FC8BD
:102CD000FFF741F978E10020BF490860BF4908606B
:102CE000BF490860824631E0BA48062153223223A8
:102CF000CDE90032CDE90210B5480FC8FEF7F2FF6A
:102D0000B4484078000200B2B24909780844B24998
:102D100009680844B0490860AE48C078000200B2B3
:102D2000AC4989780844AD4909680844AB49086052
:102D3000A8484079000200B2A64909790844A84988
:102D400009680844A64908600AF1010ABAF1320F7D
:102D5000CAD3A1480068322190FBF1F09E49086077
:102D60009E480068322190FBF1F09C4908609C4825
:102D70000068322190FBF1F099490860FDF766FE8A
:102D800098490968411A9848007832308142A1D3A5
:102D9000FDF75CFE934908600020FEF709FF002064
:102DA0002B46224609F11F01009006F13F00FEF775
:102DB000DDFDFEF7BDFD8A48006800283CD186484D
:102DC00000688749096890FBF1FB5846FDF754FB02
:102DD0000746FFF7A1FDCDE90001FFF7ADFECDE904
:102DE00004017D480068FDF747FBCDE90201DDE9FC
:102DF0000423FDF760FA7D4A03C2784800687849E9
:102E0000096890FBF1FB5846FDF736FBCDE9000160
:102E1000FFF782FD0746FFF78FFECDE904016F48FB
:102E20000068FDF729FBCDE90201DDE90423FDF788
:102E300042FA6F4A03C20BE067480068FDF71CFBCB
:102E40006A4A03C265480068FDF716FB684A03C278
:102E5000684A694B654903C9FDF72DFA0746002208
:102E6000664BFDF79AFA634A654BCDE90201FDF71F
:102E700022FACDE9040163480CC80498FDF718FA5A
:102E8000604A03C25B4A5C4B594903C9FDF713FA18
:102E900000225A4BCDE90201FDF77FFA0746554A59
:102EA000574BFDF708FACDE9040157480CC80498C0
:102EB000FDF7FEF9544A03C20022544B514903C99D
:102EC000FDF7F9F907464B4A4D4BFDF7F4F9CDE90B
:102ED00002013046FDF7D0FACDE90001DDE9022319
:102EE000FDF742F9CDE90401FDF7D7FA06460022C5
:102EF000464B454903C9FDF7DEF93E4A404BCDE953
:102F00000001FDF7D8F9074688464846FDF7B4FAB0
:102F10003A464346CDE90201FDF7C7F9CDE9040180
:102F2000FDF7BBFA8146C4F14000401BB04210DA05
:102F3000C4F14000461B364832490CC803C9FDF7AE
:102F4000BAF907460022334BFDF7B5F92D4A03C203
:102F500011E0A4F13F00B0420DDD06462C4829499E
:102F60000CC803C9FDF7A7F907460022294BFDF756
:102F7000A2F9244A03C2A4F11F0048450EDD814690
:102F8000234821490CC803C9FDF795F907460022DB
:102F9000204BFDF790F91C4A03C215E0C4F1200054
:102FA000401B484510DAC4F12000A0EB0509184881
:102FB00015490CC803C9FDF77EF907460022154BD9
:102FC000FDF779F9104A03C285E6000000000020F1
:102FD0001000002021040020280400202C040020E0
:102FE0003004002050040020780400203804002021
:102FF000400400209A9999999999234000007040C3
:103000009999A93F580400206004002000407F40A7
:10301000680400200000F0BF0FB585B000200190CB
:10302000029003900490BDF81C00019000200290D3
:103030000120039001A90598FDF76AFB09B000BDC6
:103040000FB585B000200190029003900490BDF868
:103050001C0001900120029003900320049001A91C
:103060000598FDF755FB09B000BD00000000000009
:103070000000010203040607080900000000010225
:1030800003040000000000004FBB610567ACDD3F9A
:10309000182D4454FB21E93F9BF681D20B73EF3F7F
:1030A000182D4454FB21F93FE2652F227F2B7A3CF7
:1030B000075C143326A6813CBDCBF07A8807703CB0
:1030C000075C143326A6913CC4EB98999999C9BF23
:1030D000711623FEC671BCBF6D9A74AFF2B0B3BF58
:1030E0009AFDDE522DDEADBF2F6C6A2C44B4A2BF18
:1030F0000D5555555555D53FFF8300922449C23F84
:103100006E204CC5CD45B73F513DD0A0660DB13FB7
:10311000EB0D76244B7BA93F11DA22E33AAD903FC9
:103120004C5555555555A53F7751C1166CC156BFE5
:103130009015CB19A001FA3EAD529C804F7E92BEF5
:10314000C4B1B4BD9EEE213ED43888BEE9FAA8BD14
:1031500000004054FB21F93F3163621A61B4D03D55
:103160000000601A61B4D03D7370032E8A19A33B2E
:103170000000002E8A19A33BC14920259A837B3980
:1031800000000000000000006E83F9A22915444EE3
:10319000D15727FCC0DD34F5999562DB4190433C63
:1031A000AB6351FE61C5BBDE3A6E24B7E0D24D423F
:1031B000EA2E49061C92D1091CEB1DFE3EA729B13F
:1031C000F53582E88444BB2E26709CE9417E5FB4CD
:1031D00039D69139F43953838B5F849C3B28F9BDF0
:1031E000FF97F81F0F9805DE8B112FEF1F6D0A5AFE
:1031F000CF7E366DB709CB27663F464F2DEA5F9EDF
:10320000C7BA27757BF1E5EBF739073DEA92528A99
:10321000B15FFB6B085D8D1FA6F810111111813F86
:10322000D561C119A0012ABF7DFEB157E31DC73E7C
:10323000EB9C2B8AE6E55ABE7CD5CF5A3AD9E53DC0
:1032400060320008000000208404000042060008EC
:10325000683300088404002044240000FC2800088F
:10326000113C0C014004120843046459101202126C
:1032700001391016060AFE0AC612E012F062F84E74
:10328000FE7DBBC7EF01053EC7BB7DFE300D080CC0
:10329000FEFE0C082060FEFE60208F7848FE82BA99
:1032A000BA0309135EAA0101017E6CFEFF0301CB84
:1032B000FFFF0F39BBECC0C0C0271918F92701392F
:1032C0002975990B6CFFFF0C01491A0C22E1E1E111
:1032D0002701396C0F1F1801FB1F0F0F092E270143
:1032E00036168C4222120C26FC020202FC3304FE2B
:1032F00016205844FE402A10015912491E4912A9AD
:103300002A0123300A24A42E24E4242EA424C00A53
:10331000F84A4C48F8484C4AF82A01013907490D47
:103320005915991F9918091412712BC020A1AB20AF
:10333000C00A11300A120A07027F02070A121E0B86
:103340000A0A0A7F0402560B980A1F204040405088
:10335000205F800A7102401E2BCDCC0143EC3F322E
:083360001039FD5324F40000B4
:04000005080000ED02
:00000001FF
