:020000040800F2
:10000000800C002001010008E915000831140008E7
:10001000E51500088F040008DF1F0008000000003D
:10002000000000000000000000000000351A000879
:100030009304000800000000D31900081D1E0008EA
:100040001B0100081B0100081B0100081B01000820
:100050001B0100081B0100081B010008B104000877
:100060001B0100081B0100081B0100081B01000800
:100070001B0100081B0100081B0100081B010008F0
:100080001B0100081B0100081B0100081B010008E0
:100090001B0100081B0100081B0100081B010008D0
:1000A0001B0100081B0100081B0100081B010008C0
:1000B0001B0100081B010008E51E00081B010008C9
:1000C0001B0100081B0100081B0100081B010008A0
:1000D0001B0100081B0100081B0100081B01000890
:1000E000950400081B0100081B010008DFF80CD074
:1000F00000F090F9004800470D210008800C002016
:100100000648804706480047FEE7FEE7FEE7FEE7B1
:10011000FEE7FEE7FEE7FEE7FEE7FEE78D1E0008CE
:10012000ED000008202A04DB203A00FA02F100204A
:1001300070479140C2F1200320FA03F31943904025
:100140007047202A04DB203A21FA02F00021704790
:1001500021FA02F3D040C2F120029140084319462F
:100160007047D2B201E000F8012B491EFBD2704764
:100170000022F6E710B513460A4604461946FFF773
:10018000F0FF204610BD2DE9FE4F804681EA0300B6
:10019000C00F0C46009021F0004123F00045B8EB61
:1001A0000200A94105D24046214690461C460B4616
:1001B000024623F00040104347D0270DC7F30A0042
:1001C000C3F30A510290401A019040286BDAC3F33E
:1001D000130040F4801B0098924620B10023D2EB1C
:1001E000030A63EB0B0B01985946C0F140025046DD
:1001F000FFF798FF06460D4650465946019A00F013
:1002000099F810EB08006141002487EA115284EA52
:10021000E7731A4340D0009A62B3019A012A4FEA69
:10022000075215DC001B61EB02014FF0004202EAAD
:100230000752CDE90042001C41F5801132462B46A1
:1002400000F099F803B0BDE8F08F40462146F9E789
:10025000001B61EB0201001C41F5801300185B419B
:100260002018A2F5001747EB030140EAD570B61934
:100270006D4111E06D084FEA360645EAC0754FEA58
:100280000752001B61EB0201001C41F58011490877
:100290004FEA30000019514132462B4603B0BDE809
:1002A000F04F00F059B80098012240000023D0EB35
:1002B000020263EBE073009821464FEAE074B8EB6A
:1002C000000061EB0401E9E783F000435BE781F0A4
:1002D000004158E70EB5C10F80EAE0700844CA0734
:1002E000002140F233438DE80E000A460B4600F031
:1002F00042F803B000BD70B5C1F30A5201F00045E9
:100300000024C1F3130140F2FF3341F480119A42FB
:1003100001DA002070BD40F233439A42A2F2334228
:1003200003DC5242FFF70DFF00E090402C43F1D078
:10033000404270BD202A06DBCB17203A41FA02F07A
:1003400043EAE07306E041FA02F3D040C2F1200232
:10035000914008431946704710B5141E73F100040C
:1003600008DA401C41F1000192185B411A4301D1A7
:1003700020F0010010BD2DE9F04D92469B4611B1D1
:10038000B1FA81F202E0B0FA80F220329046FFF733
:10039000C9FE04460F4640EA0A0041EA0B015346F3
:1003A0005A46084313D0114653EA010019D0C8F148
:1003B00040025046FFF7C5FE05460E4650465946D8
:1003C0004246FFF7AFFE084305D0012004E0204677
:1003D0003946BDE8F08D0020054346EAE0762C431F
:1003E00037430A986305E40AA0EB08000022FD0ADF
:1003F00044EA47540A3002D500200146E9E70105E6
:1004000010196941DDE9084500196941BDE8F04D61
:10041000A2E70000064C074D06E0E06840F001034B
:1004200094E8070098471034AC42F6D3FFF762FE19
:1004300090230008B023000870B58C1810F8015BF9
:1004400015F0070301D110F8013B2A1106D110F86D
:10045000012B03E010F8016B01F8016B5B1EF9D171
:100460002B0705D40023521E0DD401F8013BFAE7F7
:1004700010F8013BCB1A921C03E013F8015B01F862
:10048000015B521EF9D5A142D8D3002070BD00BF38
:10049000FEE7704710B54FF4806000F02DF8034878
:1004A0000068401C0149086010BD000008040020DD
:1004B00010B5022000F020F802484068401C0149B5
:1004C000486010BD080400207047000070B5044665
:1004D00000F0BEF906462546681C10B104480078B5
:1004E000054400BF00F0B4F9801BA842FAD370BDE8
:1004F000380400207047000010B504460448006826
:10050000204020B1024804602046FFF7F3FF10BDF1
:10051000140401402DE9F8470346002294466EE199
:100520004FF0010808FA02F4D1F8008008EA04004C
:10053000A0427DD1DFF8DCA2D1F80480A8EB0A0943
:10054000D0453AD014DCB8F1030F50D009DCB8F133
:10055000000F31D0B8F1010F1CD0B8F1020F49D112
:1005600020E0B8F1110F18D0B8F1120F42D11EE0FF
:10057000B9F5881F25D006DCB9F5803F20D0B9F544
:10058000801F37D11AE0B9F5001F18D0B9F5041F44
:1005900030D117E0D1F80CC02DE0D1F80C8008F173
:1005A000040C28E0D1F80C8008F1080C23E0D1F805
:1005B0000C8008F10C0C1EE000BF00BF00BF00BFA4
:1005C00000BF00BFD1F80880B8F1000F02D14FF092
:1005D000040C0BE0D1F80880B8F1010F03D14FF003
:1005E000080C1C6102E04FF0080C5C6103E04FF066
:1005F000000C00E000BF00BFFF2801D8984601E0D2
:1006000003F104084646FF2802D84FEA820803E0B7
:10061000A2F108084FEA88084746D6F800804FF054
:100620000F0909FA07F928EA09080CFA07F900E0A6
:1006300088E048EA0908C6F80080D1F8048008F08C
:100640008058B8F1805F7DD100BFDFF8CC81D8F849
:10065000188048F00108DFF8C091C9F81880C84632
:10066000D8F8188008F00108CDF8008000BF00BF5E
:100670004FEAB9384FEA920958F829504FEA827880
:100680004FEA18794FF00F0808FA09F825EA08052B
:10069000DFF88881434502D14FF0000816E0DFF80B
:1006A0008081434502D14FF001080FE0DFF87481EB
:1006B000434502D14FF0020808E0DFF86C81434562
:1006C00002D14FF0030801E04FF004084FEA8279AD
:1006D0004FEA197908FA09F848EA0505DFF84C816C
:1006E0004FEA920948F82950D1F8048008F480387C
:1006F000B8F5803F0AD1DFF83881D8F8008048EAA1
:100700000008DFF82C91C9F8008009E0DFF82081AB
:10071000D8F8008028EA0008DFF81491C9F80080B2
:10072000D1F8048008F40038B8F5003F10D1DFF8A4
:10073000008108F10408D8F8008048EA0008DFF8D2
:10074000F09000E05AE009F10409C9F800800DE0DA
:10075000DFF8DC8008F10408D8F8008028EA0008F7
:10076000DFF8CC9009F10409C9F80080D1F80480C1
:1007700008F48018B8F5801F0ED1DFF8B48008F1B6
:100780000808D8F8008048EA0008DFF8A49009F1CA
:100790000809C9F800800DE0DFF8948008F1080826
:1007A000D8F8008028EA0008DFF8849009F10809E9
:1007B000C9F80080D1F8048008F40018B8F5001FCB
:1007C0000ED1DFF86C8008F10C08D8F8008048EAF8
:1007D0000008DFF85C9009F10C09C9F800800DE011
:1007E000DFF84C8008F10C08D8F8008028EA0008EF
:1007F000DFF83C9009F10C09C9F80080521CD1F8CF
:10080000008028FA02F8B8F1000F7FF489AEBDE845
:10081000F88700000000111000100240000801409D
:10082000000C01400010014000140140080001408C
:1008300000040140024693680B400BB1012000E028
:10084000002070470AB1016101E00B0403617047A9
:100850000148006870470000300400200348006829
:1008600003490978084401490860704730040020B2
:100870003804002010B50848006840F01000064910
:100880000860032000F0A8F8002000F007F800F04E
:100890002BF8002010BD00000020024070B5044677
:1008A0000E4800784FF47A71B1FBF0F00C490968FA
:1008B000B1FBF0F5284600F0E5FB08B1012070BD62
:1008C000102C07D200222146501E00F047F80548A0
:1008D000046001E00120F2E70020F0E73804002086
:1008E0003C0400203404002008B500BF1148806992
:1008F00040F001000F4988610846806900F001005E
:10090000009000BF00BF00BF0846C06940F08050A3
:10091000C8610846C06900F08050009000BF00BF69
:1009200000BF0549486820F0E06040F00070486072
:1009300000BF08BD0010024000000140014608460B
:10094000002809DB00F01F0301229A4043099B00A5
:1009500003F1E023C3F8002100BF70472DE9F05FE9
:1009600080460D461646002701F098FB074639469B
:100970002A46334601F00700C0F1070ABAF1040F16
:1009800002D94FF0040A01E0C0F1070AD14600F194
:10099000040ABAF1070F02D24FF0000A01E0A0F1F9
:1009A000030AD4464FF0010A0AFA09FAAAF1010A29
:1009B0000AEA020A0AFA0CFA4FF0010B0BFA0CFBD6
:1009C000ABF1010B0BEA030B4AEA0B04214640464C
:1009D00001F06CFBBDE8F09F00BF00F00702064B82
:1009E00019684FF6FF031940044B0B4343EA0221F9
:1009F000014B196000BF70470CED00E00000FA05E4
:100A000070B504460D460CB9012070BD5A48006807
:100A100000F00700A8420ED25748006820F00700F7
:100A20002843554908600846006800F00700A842BE
:100A300001D00120E9E7207800F0020002281DD152
:100A4000207800F00400042805D14C48406840F4A8
:100A5000E0604A494860207800F00800082805D185
:100A60004648406840F46050444948604348406804
:100A700020F0F000A168084340494860207800F069
:100A8000010078B36068012806D13C48006800F492
:100A9000003090B90120B8E76068022806D13748D5
:100AA000006800F0007040B90120AEE733480068EC
:100AB00000F0020008B90120A7E73048406820F0A4
:100AC0000300616808432D494860FFF7C1FE0646F0
:100AD00009E0FFF7BDFE801B41F28831884202D950
:100AE000032092E707E02548406800F00C006168A9
:100AF000B0EB810FEDD12048006800F00700A8425C
:100B00000ED91D48006820F0070028431A490860E4
:100B10000846006800F00700A84201D0012074E7F1
:100B2000207800F00400042807D11448406820F41D
:100B3000E060E168084311494860207800F008004F
:100B4000082808D10D48406820F46050216940EA27
:100B5000C1000A49486000F019F808494968C1F322
:100B60000311074A515CC8400649086006480068FE
:100B7000FFF794FE002048E70020024000100240EA
:100B8000762300083C04002034040020F0B585B032
:100B90000FF26C0C9CE8E01001A8A0E8E0101CA586
:100BA0002D68009500210022002300240020194D0B
:100BB000696801F00C05F5B1042D02D0082D19D19A
:100BC00001E0154819E001ADC1F38346AC5D01F4C5
:100BD000803555B10F4D6D68C5F340451DF80520B2
:100BE0000D4D6543B5FBF2F302E00C4D04FB05F33C
:100BF000184602E000BF084800BF00BF05B0F0BDC6
:100C000002030405060708090A0B0C0D0E0F10104D
:100C1000010200000010024000127A0000093D00AD
:100C2000F8B504460CB90120F8BD207800F00100A9
:100C3000002878D0F848406800F00C0004280CD058
:100C4000F548406800F00C00082811D1F2484068CF
:100C500000F48030B0F5803F0AD1EF48006800F41E
:100C6000003000285FD0606800285CD10120DBE7FD
:100C700000BF6068B0F5803F06D1E748006840F4E7
:100C80008030E549086028E0606858B9E2480068AB
:100C900020F48030E04908600846006820F4802095
:100CA00008601AE06068B0F5A02F0BD1DA48006840
:100CB00040F48020D84908600846006840F480303D
:100CC00008600AE0D448006820F48030D249086007
:100CD0000846006820F48020086000BF606888B182
:100CE000FFF7B6FD054606E0FFF7B2FD401B64289E
:100CF00001D9032098E7C848006800F400300028B4
:100D0000F2D010E0FFF7A4FD054606E0FFF7A0FDD6
:100D1000401B642801D9032086E7BF48006800F41F
:100D200000300028F2D1207800F00200022857D1CC
:100D3000B948406800F00C0050B1B748406800F076
:100D40000C00082818D1B448406800F4803098B9E5
:100D5000B148006800F0020020B12069012801D0EC
:100D6000012061E7AC48006820F0F800616940EAC2
:100D7000C100A949086033E02069E8B10120A74912
:100D80000860FFF765FD054606E0FFF761FD401BC3
:100D9000022801D9032047E79F48006800F00200BD
:100DA0000028F2D09C48006820F0F800616940EA11
:100DB000C1009949086013E0002098490860FFF7D6
:100DC00047FD054606E0FFF743FD401B022801D919
:100DD000032029E79048006800F002000028F2D1C3
:100DE000207800F0080008282DD1A069B8B10120B2
:100DF0008B490860FFF72CFD054606E0FFF728FD4C
:100E0000401B022801D903200EE78348406A00F006
:100E100002000028F2D0012000F0DCFD13E00020E9
:100E20007F490860FFF714FD054606E0FFF710FD57
:100E3000401B022801D90320F6E67748406A00F0FB
:100E400002000028F2D1207800F00400042873D1B9
:100E500000277148C06900F0805070B900BF6E482B
:100E6000C06940F080506C49C8610846C06900F014
:100E70008050009000BF00BF01276A48006800F45E
:100E80008070B0B96748006840F4807065490860B8
:100E9000FFF7DEFC054606E0FFF7DAFC401B64289E
:100EA00001D90320C0E65F48006800F48070002884
:100EB000F2D000BFE068012806D15748006A40F030
:100EC00001005549086227E0E06858B95248006AB5
:100ED00020F00100504908620846006A20F0040032
:100EE000086219E0E06805280BD14B48006A40F021
:100EF0000400494908620846006A40F0010008629F
:100F00000AE04548006A20F00100434908620846AB
:100F1000006A20F00400086200BFE068A0B1FFF79B
:100F200097FC054609E0FFF793FC401B41F288312E
:100F3000884202D9032077E622E03748006A00F0B1
:100F400002000028EFD012E0FFF782FC054608E01F
:100F5000FFF77EFC401B41F28831884201D9032013
:100F600062E62D48006A00F002000028F0D1012F4F
:100F700005D12948C06920F080502749C86100BFC9
:100F8000E069C8B32448406800F00C00082860D02D
:100F9000E069022848D1002020490866FFF758FC84
:100FA000054606E0FFF754FC401B022801D9032048
:100FB0003AE61948006800F000700028F2D1206A73
:100FC000B0F5803F07D11448406820F40030A16894
:100FD000084311494860D4E9080108430E494968AB
:100FE00021F4741108430C49486001200B4908663C
:100FF000FFF72EFC054607E03DE0FFF729FC401B0C
:10100000022801D903200FE60348006800F00070B1
:101010000028F2D02FE00000001002400000424201
:101020008004424200700040002014490866FFF727
:101030000FFC054606E0FFF70BFC401B022801D918
:101040000320F1E50E48006800F000700028F2D19E
:1010500011E0E069012800D1E6E50948466806F498
:101060008031206A814204D106F47011606A8142A5
:1010700001D00120D8E50020D6E500000000424262
:101080000010024070B504462546681EB0F1807F0E
:1010900001D301200FE0681E4FF0E02148610F21CD
:1010A0004FF0FF3001F002F800204FF0E02188619E
:1010B00007200861002070BD7047704710B50246D8
:1010C00000BF92F83C00012801D1022010BD012090
:1010D00082F83C0000BF022082F83D00106843689F
:1010E0001068846823F070030868034324F08004C8
:1010F000486804431068436010688460012082F8E7
:101100003D0000BF002082F83C0000BF00BFDDE7CB
:1011100010B504460CB9012010BD94F83D0028B963
:10112000002084F83C00204600F00CF8022084F8EF
:101130003D00211D206800F0DDFE012084F83D0007
:101140000020E9E738B504460D492068884215D1EA
:1011500000BF0C48C06940F004000A49C861084655
:10116000C06900F00400009000BF00BF00221146DB
:101170001E20FFF7F3FB1E20FFF7E0FB38BD000049
:1011800000080040001002402DE9F04104460D46E1
:1011900000BF94F83C00012802D10220BDE8F08194
:1011A000012084F83C0000BF022084F83D00206844
:1011B000866826F0770626F47F46206886602868D1
:1011C000502833D00CDC202850D004DC00284BD031
:1011D000102851D149E0302849D040284CD139E07D
:1011E00060282DD0702807D0B0F5805F03D0B0F50F
:1011F000005F41D10DE040E0D5E902136A68206844
:1012000000F0B2FE2068866846F0770620688660A7
:1012100033E0D5E902136A68206800F0A5FE206873
:10122000806840F480402168886026E0EA68696848
:10123000206800F0ADFE5021206800F0A0FE1CE008
:10124000EA686968206800F0B6FE6021206800F056
:1012500096FE12E0EA686968206800F099FE402175
:10126000206800F08CFE08E000BF00BF00BF2968C6
:10127000206800F084FE00E000BF00BF012084F879
:101280003D0000BF002084F83C0000BF00BF85E7A0
:10129000704710B5044620680069C0F34000D8B11B
:1012A0002068C068C0F34000B0B16FF00200216850
:1012B0000861012020772068806900F0030018B1E0
:1012C0002046FFF7E5FF05E0204600F0ADF8204698
:1012D00000F0ABF80020207720680069C0F38000A0
:1012E000D8B12068C068C0F38000B0B16FF00400CE
:1012F00021680861022020772068806900F440702E
:1013000018B12046FFF7C4FF05E0204600F08CF836
:10131000204600F08AF80020207720680069C0F39A
:10132000C000D8B12068C068C0F3C000B0B16FF091
:10133000080021680861042020772068C06900F057
:10134000030018B12046FFF7A3FF05E0204600F098
:101350006BF8204600F069F80020207720680069CB
:10136000C0F30010D8B12068C068C0F30010B0B15D
:101370006FF0100021680861082020772068C0699C
:1013800000F4407018B12046FFF782FF05E02046C8
:1013900000F04AF8204600F048F800202077206846
:1013A000006900F0010058B12068C06800F0010039
:1013B00030B16FF0010021680861204600F036F876
:1013C00020680069C0F3C01058B12068C068C0F33D
:1013D000C01030B16FF08000216808612046FFF72F
:1013E0006BFE20680069C0F3801058B12068C068A7
:1013F000C0F3801030B16FF04000216808612046D2
:1014000000F015F820680069C0F3401058B120685A
:10141000C068C0F3401030B16FF02000216808614F
:101420002046FFF74AFE10BD70477047704770476F
:1014300000BFFEE710B5012211460948FFF702FA86
:10144000012202210648FFF7FDF90022022104488B
:10145000FFF7F8F9002201210148FFF7F3F910BD69
:101460000008014010B5012211460748FFF7EAF9CC
:10147000002202210448FFF7E5F901220221024877
:10148000FFF7E0F910BD00000008014010B501228F
:1014900011460448FFF7D6F9002201210148FFF761
:1014A000D1F910BD0008014000B585B000200190C1
:1014B00002900390049000BF2C48806940F0200007
:1014C0002A4988610846806900F02000009000BF2A
:1014D00000BF00BF0846806940F0040088610846EC
:1014E000806900F00400009000BF00BF00BF084604
:1014F000806940F0080088610846806900F00800B3
:10150000009000BF00BF002201211948FFF79AF99F
:101510000122D1021648FFF795F940F6010001902B
:101520000120029003900320049001A91048FEF7C7
:10153000F1FF40F2024001900E480290002003901B
:1015400001A90B48FEF7E6FF002211460720FFF72E
:1015500005FA0720FFF7F2F9002211462820FFF7CD
:10156000FDF92820FFF7EAF905B000BD00100240A0
:10157000000C01400000111000B587B0002003905E
:101580000490059006900190029014481449086058
:101590004720486000211248816040F2E731C16075
:1015A000002101618161FFF7B3FD08B1FEF78CFFF7
:1015B0004FF48050039003A90948FFF7E5FD08B1F7
:1015C000FEF782FF00200190029001A90448FFF776
:1015D00075FD08B1FEF778FF07B000BD00080040B8
:1015E0004004002000BFFEE7704700002DE9FF5FC8
:1015F00006460F4690469A46DDF838B00024454628
:101600004046FEF767FE0022494BCDE90001FEF798
:101610005EFECDE90201FEF76EFE814682E0B9F181
:10162000000F40DB601B022101FB009000F1050967
:10163000641C6D1EE919A0195B46524600F07AF849
:10164000E919624290195B46524600F073F8E119BD
:10165000A8195B46524600F06DF8E1196A429019EC
:101660005B46524600F066F86A42D119A0195B4603
:10167000524600F05FF86A42D119624290195B4607
:10168000524600F057F86242D119A8195B465246FB
:1016900000F050F86242D1196A4290195B465246F6
:1016A00000F048F83EE0022000FB049000F103093E
:1016B000641C00BFE919A0195B46524600F03AF8D5
:1016C000E919624290195B46524600F033F8E1197D
:1016D000A8195B46524600F02DF8E1196A429019AC
:1016E0005B46524600F026F86A42D119A0195B46C3
:1016F000524600F01FF86A42D119624290195B46C7
:10170000524600F017F86242D119A8195B465246BA
:1017100000F010F86242D1196A4290195B465246B5
:1017200000F008F8AC42FFF67AAFBDE8FF9F00007A
:101730000000F43F2DE9F04F87B004460D46914676
:101740009A46B9F1000F02D107B0BDE8F08F802CA6
:1017500000DB7F24402D00DB3F25002660E0BAF14E
:10176000000F29D1A019354901EBC000D0E900785C
:1017700005EB0900402801D24A4601E0C5F14002CC
:101780004FF0FF3B58465946CDF808B0FEF7CAFC6B
:101790000A46C143D0432A46CDE9000108460099D4
:1017A000FEF7C0FC074348EA0108A019234901EBF2
:1017B000C000C0E9007831E0BAF1010F2AD1A019C8
:1017C0001E4901EBC000D0E9007805EB0900402874
:1017D00001D24A4601E0C5F140024FF0FF310691C7
:1017E00008460591FEF79EFC0A46C143D0432A46AF
:1017F000CDE9030108460399FEF794FC0A46C1436C
:101800000F4028EA0208A0190C4901EBC000C0E90A
:10181000007803E0BAF1020F00D00CE0701CC6B2F1
:1018200004EB0900802802D2A9F1010001E0C4F113
:101830007F00B04293D200BF00BF85E78004002044
:1018400010B5014600200BE011B90022134602E05A
:101850004FF0FF321346044C04EBC0040CC4401C90
:101860008028F1D310BD00008004002070B5002452
:1018700018E004F1B000002100F09FF800210220E0
:1018800000F09BF80021102000F097F8002505E0FB
:101890000121002000F091F8681CC5B2802DF7DB13
:1018A000601CC4B2082CE4DB70BD10B56420FEF7E8
:1018B0000DFE0021AE2000F080F80021022000F093
:1018C0007CF80021102000F078F80021402000F082
:1018D00074F80021B02000F070F80021812000F0A1
:1018E0006CF80021FF2000F068F80021A12000F032
:1018F00064F80021A62000F060F80021A82000F084
:101900005CF800213F2000F058F80021C82000F0CA
:1019100054F80021D32000F050F80021084600F0D0
:101920004CF80021D52000F048F80021802000F07C
:1019300044F80021D82000F040F80021052000F0F4
:101940003CF80021D92000F038F80021F12000F007
:1019500034F80021DA2000F030F80021122000F0E5
:101960002CF80021DB2000F028F80021302000F0C6
:1019700024F800218D2000F020F80021142000F030
:101980001CF80021AF2000F018F810BD70B5044617
:101990000D4605F1B000002100F00FF8A11CC1F3C5
:1019A000031141F01000002100F007F8A11C01F024
:1019B0000F00002100F001F870BD70B504460D461F
:1019C0001DB1E0B200F054FB02E0E0B200F03AFBDF
:1019D00070BD704708B508490968C9084FF47A72A4
:1019E000B1FBF2F14143009100BF00BF00994A1ED4
:1019F00000920029F9D108BD3C04002070B50024F4
:101A000012E02146FE20FFF7C1FF002508E008494B
:101A100001EBC501085D0121FFF7CFFF681CC5B2CE
:101A2000802DF4DB601CC4B2082CEADB70BD000022
:101A30008004002070471FB5BDF80A1000220198ED
:101A4000FEF700FF9DE80F0000F080FCBDF80810D5
:101A500000220098FEF7F6FE002000F04AFBBDF8D9
:101A60000A1001220198FEF7EDFE002000F041FB74
:101A7000BDF80A1000220198FEF7E4FE1FBD000029
:101A80000FB585B00020019002900390049000BF34
:101A90001548806940F0080013498861084680694C
:101AA00000F00800009000BF00BF0122C3210F48D2
:101AB000FEF7C8FEC320019001200290039003208E
:101AC000049001A90948FEF725FDBDF81C1001226C
:101AD0000598FEF7B7FEBDF81E1001220698FEF726
:101AE000B1FE09B000BD0000001002400008014036
:101AF0001FB5BDF80A1000220198FEF7A3FE9DE86D
:101B00000F0000F023FCBDF8081001220098FEF73A
:101B100099FE002000F0EDFABDF80A1001220198AC
:101B2000FEF790FE002000F0E4FABDF80A10002253
:101B30000198FEF787FE1FBD2DE9FF4182B0DDE968
:101B40000C85DDE90E6702A80FC800F0AEF8680644
:101B5000000E009002A80FC800F074F802A80FC889
:101B600000F0EBF808F0FF00009002A80FC800F0AA
:101B700069F802A80FC800F0E0F802A80FC800F04A
:101B800094F8012000EB4500C0B2009002A80FC8F5
:101B900000F058F802A80FC800F0CFF8002412E0B7
:101BA000701EA04207D00120009002A80FC800F0CC
:101BB00013F8385506E00020009002A80FC800F086
:101BC0000BF83855641CB442EADB02A80FC800F0D9
:101BD00090F806B0BDE8F0817FB5089E00249DE82E
:101BE0000F0000F09FFB00251DE0BDF80A10002249
:101BF0000198FEF727FE002000F07BFABDF80A10DE
:101C000001220198FEF71EFE6006040EBDF80810C2
:101C10000098FEF70FFE08B1601CC4B2002000F06F
:101C200068FA681CC5B2082DDFDB26B99DE80F00F5
:101C3000FFF75EFF03E09DE80F00FFF7FCFE204684
:101C400004B070BD7FB5089C9DE80F0000F07EFBDE
:101C5000BDF80A1000220198FEF7F4FD002000F004
:101C600048FA00251EE0E209BDF808100098FEF7CA
:101C7000E9FD6006040E002000F03BFABDF80A10F2
:101C800001220198FEF7DEFD002000F032FABDF8D7
:101C90000A1000220198FEF7D5FD002000F029FA75
:101CA000681CC5B2082DDEDB7FBD1FB59DE80F00A7
:101CB00000F04CFBBDF8081001220098FEF7C2FDB1
:101CC000BDF80A1001220198FEF7BCFD002000F0CB
:101CD00010FABDF8081000220098FEF7B3FD0020AE
:101CE00000F007FABDF80A1000220198FEF7AAFDDD
:101CF0001FBD1FB59DE80F0000F028FBBDF80A10BE
:101D000000220198FEF79EFDBDF808100022009801
:101D1000FEF798FD002000F0ECF9BDF80A10012252
:101D20000198FEF78FFDBDF8081001220098FEF71C
:101D300089FD002000F0DDF91FBD1FB50024BDF8AE
:101D4000081001220098FEF77DFD9DE80F0000F0CD
:101D5000E9FA002000F0CDF9BDF80A10012201983F
:101D6000FEF770FD002000F0C4F90FE0601CC4B263
:101D7000FA2C06DD9DE80F00FFF7BBFF012004B041
:101D800010BDBDF808100098FEF754FDBDF808100E
:101D90000098FEF74FFD0028E8D1BDF80A10002298
:101DA0000198FEF74FFD0020E9E72DE9FF4182B0E1
:101DB0000CAD95E8E00102A80FC8FFF776FF7006AA
:101DC000000E009002A80FC8FFF73CFF02A80FC842
:101DD000FFF7B3FFE8B2009002A80FC8FFF732FF89
:101DE00002A80FC8FFF7A9FF00240BE018F80400B1
:101DF000009002A80FC8FFF725FF02A80FC8FFF741
:101E00009CFF641CBC42F1DB02A80FC8FFF771FF06
:101E1000022000F06EF906B0BDE8F08110B5FEF7C3
:101E20001DFD10BD00B58FB0282105A8FEF7A0F953
:101E300014216846FEF79CF90120059000040690E5
:101E4000002007900120099002200C90C1030D9101
:101E50004FF4E0110E9105A8FEF7E2FE08B1FEF77F
:101E600033FB0F20009002200190002002904FF4DD
:101E7000806003900020049002216846FEF7C0FDB8
:101E800008B1FEF721FB0FB000BD0000114800684B
:101E900040F001000F490860084640680E490840BC
:101EA0000C494860084600680C4908400949086028
:101EB0000846006820F4802008600846406820F446
:101EC000FE0048604FF41F008860C80304490860A2
:101ED00070470000001002400000FFF8FFFFF6FE10
:101EE00008ED00E010B50248FFF7D3F910BD00007F
:101EF0004004002010B50268184B984208D0B0F199
:101F0000804F05D0164B984202D0164B984203D111
:101F100022F070024B681A43104B984208D0B0F17F
:101F2000804F05D00E4B984202D00E4B984203D101
:101F300022F44072CB681A4322F080034C6943EAD2
:101F4000040202608B68C3620B688362034B984291
:101F500001D10B6903630123436110BD002C0140D3
:101F6000000400400008004030B50C46816821F4B0
:101F70007F4142EA032525432943816030BD0A465B
:101F8000816821F0700142F00703194381607047B6
:101F900030B50B461446026A056A25F00105056254
:101FA000816921F0F00141EA041122F00A021A438A
:101FB0008161026230BD30B50B461446056A25F0DA
:101FC000100505628169026A21F4704141EA043119
:101FD00022F0A00242EA03128161026230BD00BF1A
:101FE000FEE700002DE9F04105462C4600220121C4
:101FF0001348FEF727FC00261DE0274607F0800760
:10200000802F05D1012202210D48FEF71BFC04E0C0
:10201000002202210A48FEF715FC6006040E012288
:1020200011460748FEF70EFC002201210448FEF786
:1020300009FC701CC6B2082EDFDBBDE8F081000091
:102040000008014010B50446FFF7F4F97820FFF7C7
:10205000C9FFFFF71BFA0020FFF7C4FFFFF716FACE
:102060002046FFF7BFFFFFF711FAFFF7FBF910BD9E
:1020700010B50446FFF7DEF97820FFF7B3FFFFF74E
:1020800005FA4020FFF7AEFFFFF700FA2046FFF702
:10209000A9FFFFF7FBF9FFF7E5F910BD024800685B
:1020A000C0F30220704700000CED00E010B50028DE
:1020B00004DB0A07130E054A135406E00A07140E40
:1020C000034A00F00F031B1FD45410BD00E400E0CE
:1020D00018ED00E002E008C8121F08C1002AFAD17A
:1020E00070477047002001E001C1121F002AFBD198
:1020F000704706E0A82100BF0A1EA1F1010399B2B2
:10210000FAD1021EA0F10100F4D170471FB53F269D
:102110001F2703240225FEF7ADFBFFF783FEFFF721
:10212000C3F9FFF729FA7C480FC8FFF7A9FC7B48E1
:102130000FC8FFF7A5FCFFF7B8FBFFF797FB0B20D5
:10214000774908700846012153223123CDE9003236
:10215000CDE9021071480FC8FFF727FE082070492B
:1021600008700846012153222C23CDE90032CDE925
:1021700002106A480FC8FFF718FE08206849087067
:102180000846012153222D23CDE90032CDE902106A
:1021900062480FC8FFF709FE8020614908700846B1
:1021A000012153222E23CDE90032CDE902105B48F4
:1021B0000FC8FFF7FAFD00205949087008460121B1
:1021C00053221E23CDE90032CDE9021053480FC837
:1021D000FFF7EBFD05205249087008460121532204
:1021E0002023CDE90032CDE902104C480FC8FFF79B
:1021F000DCFD8FE04FF00009CA46CB46C84622E01E
:102200004748062153223223CDE90032CDE902109E
:1022100042480FC8FFF790FC414800784049497890
:1022200000EB012081443E4880783D49C97800EBAD
:10223000012082443A4800793949497900EB01206C
:10224000834408F10108B8F10A0FD9D30A2099FB99
:10225000F0F99AFBF0FA9BFBF0FB0020FFF7F0FA95
:1022600000202B46224607F11F01009006F13F0097
:10227000FFF7BCF9FFF7C2FB29484078000200B223
:1022800027490978084400280ADD3046761CC4F145
:102290004001491B884216DDC4F14000461B12E094
:1022A0001F484078000200B21D4909780844002800
:1022B00009DA3046761EA4F140012944884202DA48
:1022C000A4F1400046191648C078000200B2144933
:1022D0008978084400280ADD38467F1EA4F12001D1
:1022E0002944884216DAA4F12000471912E00C486C
:1022F000C078000200B20A4989780844002809DA47
:1023000038467F1CC4F12001491B884202DDC4F11C
:102310002000471B6EE7000010040020200400206E
:10232000010400200FB585B00020019002900390B9
:102330000490BDF81C000190002002900120039041
:1023400001A90598FEF7E6F809B000BD0FB585B004
:1023500000200190029003900490BDF81C000190B1
:102360000120029003900320049001A90598FEF734
:10237000D1F809B000BD000000000000000001021B
:10238000030406070809000000000102030400001E
:10239000B0230008000000204004000038040008BA
:1023A000B02400084004002040080000E420000899
:1023B0001116060AFE0AC612E012F062F84EFE7D01
:1023C000BBC7EF01053EC7BB7DFE300D080CFEFE0E
:1023D0000C082060FEFE60208F7848FE82BABA03A7
:1023E00009135EAA0101017E6CFEFF0301CBFFFF12
:1023F0000F39BBECC0C0C0271918F927013929755E
:10240000990B6CFFFF0C01491A0C22E1E1E1270155
:10241000396C0F1F1801FB1F0F0F092E27013616ED
:102420008C4222120C26FC020202FC3304FE16200F
:102430005844FE402A10015912491E4912A92A0186
:1024400023300A24A42E24E4242EA424C00AF84A0B
:102450004C48F8484C4AF82A01013907490D5915EA
:10246000991F9918091412712BC020A1AB20C00A22
:1024700011300A120A07027F02070A121E0B0A0A0B
:102480000A7F0402560B980A1F2040404050205FEC
:10249000800A71921E2C08014004120212019A64F3
:1024A0001012804A4010312A10DF411324F400003A
:04000005080000ED02
:00000001FF
